:100000000C9417030C944F030C944F030C944F0360
:100010000C944F030C944F030C944F030C944F0318
:100020000C944F030C944F030C94261A0C94E21971
:100030000C94231B0C944F030C944F030C944F030C
:100040000C944F030C944F030C944F030C944F03E8
:100050000C944F030C94FF1A0C944F030C944F0311
:100060000C944F030C944F030C944F030C944F03C8
:100070000C944F030C944F030C944F030C944F03B8
:100080000C944F030C944F030C944F030C944F03A8
:100090000C944F030C944F030C944F030C944F0398
:1000A0000C944F030C944F030C944F030501090269
:1000B000A10185020901A1000509190129081500FE
:1000C0002501950875018102050109300931158165
:1000D000257F95027508810609381581257F9501D0
:1000E00075088106050C0A38021581257F95017572
:1000F000088106C0C005010980A101850319012AF4
:10010000B700150126B700950175108100C0050CD8
:100110000901A101850419012AA002150126A002E6
:10012000950175108100C005010906A1018506052C
:100130000719E029E71500250195087501810205D9
:1001400007190029EF1500250195F07501810205B9
:10015000081901290595057501910295017503910D
:1001600001C00660FF0961A1010962150026FF00B8
:100170009520750881020963150026FF00952075FA
:10018000089102C005010906A101050719E029E748
:1001900015002501950875018102950175088101F9
:1001A0000507190029FF150026FF0095067508812F
:1001B000000508190129059505750191029501753C
:1001C000039101C0000000000000000000000000DA
:1001D000000000000000000000000000000000001F
:1001E00000000000000000007E0F00D4FFFFFFC7EA
:1001F0000000007800000000000000002A2B28000A
:1002000000000000000000000000000000000029C5
:10021000000000002C1E3420212224342627252E05
:10022000362D3738271E1F2021222324252633333D
:10023000362E37381F0405060708090A0B0C0D0E69
:100240000F101112131415161718191A1B1C1D2F35
:100250003130232D350405060708090A0B0C0D0E55
:100260000F101112131415161718191A1B1C1D2F15
:100270003130354C14001A000800150017001C001E
:1002800018000C00120013000400160007000900FB
:100290000A000B000D000E000F002D431D001B0077
:1002A0000600190005001100100036003700384420
:1002B000E000E300E200E1002A422C412800650052
:1002C0004C0029001E001F002000210022002300F6
:1002D00024002500260027002B0000000000350028
:1002E0002F0030003100330034002D0000000000EA
:1002F000000000002E002D000000010001000100A0
:1003000001000100010001000100000001000100E6
:10031000010001003A003B003C003D003E003F0070
:1003200040004100420043002B0044004500000013
:10033000000000000000000000000000390046003E
:1003400047004800000053000000AA00A900A800D0
:100350000100010001000100000000000000000099
:10036000000000002900000000000000000049001B
:100370004B0052004E004C002B000000000000001B
:1003800000004A00500051004F0000000000000033
:100390000000000000004D00000000000000000010
:1003A00001000100010001002A000000000000001F
:1003B000000000000000000000000000000000003D
:1003C000000000000000000000000000000000002D
:1003D000000000000000000000000000000000001D
:1003E000000000000000000000000000000000000D
:1003F00000000000000000000000000000000000FD
:1004000000000000000000000000000000000000EC
:1004100000000000000000000000000000000000DC
:1004200000000000000000000000000000000000CC
:1004300000000000000000000000000000000000BC
:1004400000000000000000000000000000000000AC
:10045000000000000000000000000000000000009C
:10046000000000000000000000000000000000008C
:10047000000000000000000000000000000000007C
:10048000000000000000000000000000000000006C
:10049000000000000000000000000000000000005C
:1004A000000000000000000000000000000000004C
:1004B000000000000000000000000000000000003C
:1004C000000000000000000000000000000000002C
:1004D000000000000000000000000000000000001C
:1004E000000000000000000000000000000000000C
:1004F00000000000000000000000000000000000FC
:1005000000000000000000000000000000000000EB
:1005100000000000000000000000000000000000DB
:1005200000000000000000000000000000000000CB
:1005300000000000000000000000000000000000BB
:1005400000000000000000000000000000000000AB
:10055000000000000000000000000000000000009B
:10056000000000000000000000000000000000008B
:10057000000000000000000000000000000000007B
:10058000000000000000000000000000000000006B
:100590000000000009025B00030100A0FA0904004A
:1005A000000103010100092111010001224000079F
:1005B000058103080001090401000203000000098D
:1005C00021110100012222000705820320000107FA
:1005D00005030320000109040200010300000009D3
:1005E000211101000122B600070584032000011239
:1005F00001000200000008AFBE010000000102007F
:10060000011203620061006E0069006D0065003434
:1006100000300000001203730070006F007200656C
:100620000077006F00680000000403090400112433
:100630001FBECFEFDAE0DEBFCDBF04B603FE18C0A9
:1006400080915F0290916002A0916102B09162027C
:100650008730904BA740B04B59F410925F02109234
:1006600060021092610210926202E0E0F8E30995E4
:1006700011E0A0E0B1E0ECEFFFE302C005900D92C5
:10068000AC35B107D9F722E0ACE5B1E001C01D926D
:10069000AF35B207E1F70E944A1B0C94D31F0C94AC
:1006A0000000E8EDF0E080818E7F80831092E20010
:1006B0001092DA001092E100A0EEB0E08C9181601F
:1006C0008C9380818F77808319BCA7EDB0E08C91EB
:1006D0008E7F8C9380818F7E808310922B02089571
:1006E0002091E4003091E50095E6A9012091EC000D
:1006F000822F817020FF06C08091E80080FF06C035
:1007000080E008952091E80022FD1AC080915002F7
:10071000882389F0853089F08091EB0085FD0FC03A
:100720002091E4003091E50042175307F9F291500F
:10073000E1F684E0089582E0089583E0089581E081
:100740000895EF92FF920F931F93CF937C018B013B
:100750000E947003C82F811117C08091E80085FDA9
:100760000BC08091E8008E778093E8000E947003B0
:10077000882399F3C82F08C0F70181917F018093E6
:10078000F1000150110949F78C2FCF911F910F9162
:10079000FF90EF9008958091520287FF13C08091DF
:1007A000E80082FF06C08091E8008B778093E80024
:1007B00004C0809150028111F2CF089580915002BF
:1007C0008823D9F38091E80080FFF8CF8091E8007A
:1007D0008E77ECCF982F9093E900242F762F50E05E
:1007E000891731F07091EC002091ED005091F000EC
:1007F00021FD07C09F5F973071F78093E90081E08A
:1008000008953091EB003E7F3093EB003091ED0086
:100810003D7F3093ED003091EB0031603093EB0081
:100820007093EC002093ED005093F0002091EE00C7
:1008300027FDE0CF80E00895CF92DF92EF92FF9204
:100840000F931F93CF93DF93C8EDD0E088818F7E05
:100850008883E7EDF0E080818160808384E082BF5F
:1008600081E080932B0288818E7F888302EE10E0E6
:10087000F80110821092DA0081EEC82ED12CF60118
:10088000108288818F7788838881806888838881B7
:100890008F7D888319BC10925002109251021092E1
:1008A0004F0210924E0290EEE92EF12CF70180815A
:1008B0008B7F808388818160888342E060E080E074
:1008C0000E94EA03F60180818E7F8083F801808197
:1008D00081608083808188608083F70180818E7F42
:1008E0008083888180618883DF91CF911F910F91F0
:1008F000FF90EF90DF90CF900895FC018091580217
:100900009091590286179707A0F06115710529F497
:100910009091E8009E779093E80090E06115710552
:1009200051F4911108C08091E80082FF34C080E04A
:100930000895BC01F2CF809150028823C1F1853027
:10094000C1F18091E80083FD30C08091E80082FD14
:10095000EACF8091E80080FFE1CF8091F300209101
:10096000F200382F6115710519F02830310558F063
:1009700091E02830310509F090E02091E8002E77D1
:100980002093E800CBCF81918093F10061507109F1
:100990002F5F3F4FE7CF80915002882341F0853091
:1009A00041F08091E80083FFBECF81E0089582E0AE
:1009B000089583E00895089580912D0208959C0183
:1009C0004FB7F8948091220290912302A0912402C3
:1009D000B09125024FBF821B930B08952FB7F89457
:1009E0008091220290912302A0912402B0912502CD
:1009F0002FBF089520910C012223C9F020912602D7
:100A000027FF15C0E62FE695E695E695EE31D8F47A
:100A1000E80FF92FF11D677021E030E001C0220FCF
:100A20006A95EAF720958281282322830895FC01A4
:100A3000329608962191621303C0DF0111971C9230
:100A4000E817F907B9F7089520910C012223C1F0A6
:100A50002091260227FF14C0E62FE695E695E6953D
:100A6000EE31F8F4E80FF92FF11D677021E030E066
:100A700001C0220F6A95EAF78281822B8283089552
:100A8000FC0132962FEF30E04191641751F02F3F77
:100A900019F4411101C0232F3F5F3630A9F72F3FD2
:100AA00009F40895820F911D27FD9A95FC01628338
:100AB000089520911F02309120022817390771F004
:100AC0009093200280931F02E0911D02F0911E027C
:100AD000309721F00084F185E02D0994089520914C
:100AE0001B0230911C022817390771F090931C02E9
:100AF00080931B02E0911D02F0911E02309721F0BD
:100B00000680F781E02D09940895E0911D02F0918F
:100B10001E02309721F00190F081E02D099480E0D1
:100B200008950E94EE049C01909117028091180292
:100B3000982B21F030931402209313029091190204
:100B400080911A02982B21F0309312022093110207
:100B5000E0911D02F0911E02309749F082E08093EF
:100B600015020480F581E02D85E192E00994089555
:100B700040911702803F59F48091180287FF0DC001
:100B80001092180241110BC010920F0208C0813F51
:100B900081F48091180218169CF3442381F080910F
:100BA000190290911A02892B09F05AC010920E0274
:100BB0000895823F49F447FFF0CF109217028091C9
:100BC00018028111ECCFE0CF833F19F41416ACF377
:100BD000E4CF90911902893F29F41916F4F6109286
:100BE0001902DBCF8A3F19F497FFD7CFF8CF909146
:100BF0001A028B3F29F497FFD0CF10921A02CDCF63
:100C00008C3F19F41916CCF3C8CF9CE0980F95309F
:100C100090F4845F990B21E030E0B90102C0660FC7
:100C2000771F8A95E2F7CB01809590911602892370
:100C300080931602B2CF8D3F31F4809110028E7FE7
:100C400080931002AACF8E3F21F4809110028D7FF5
:100C5000F7CF8F3F09F0A1CF809110028B7FF0CFAB
:100C600008958091100280FD16C081FD16C082FD9E
:100C700016C080910E028823A1F0883280F428E00B
:100C8000829FC001112468E270E00E944F1F862FEE
:100C9000672B39F0089582E0089584E0089588E094
:100CA000089581E008958091100280FD14C081FDB7
:100CB00014C082FD16C080910F02882381F08E310E
:100CC00080F420E5829FC00111246EE170E00E9453
:100CD0004F1F862F089584E1089588E2089588E0E3
:100CE000089580E50895803F31F40E945306819570
:100CF000809318020895813F19F40E945306F8CF9B
:100D0000823F31F40E945306819580931702089523
:100D1000833F19F40E945306F8CF893F29F40E94BB
:100D200031068093190208958A3F21F40E9431060A
:100D30008195F7CF8B3F31F40E94310681958093E6
:100D40001A0208958C3F19F40E943106F8CF9CE0F6
:100D5000980F953070F4845F990B21E030E001C06A
:100D6000220F8A95EAF780911602822B8093160251
:100D700008958D3F31F480911002816080931002BC
:100D800008958E3F21F4809110028260F7CF8F3F4B
:100D9000B9F7809110028460F1CF80E00895F89453
:100DA000E82FE295EF70F0E031A1282F2F7081E05D
:100DB00090E001C0880F2A95EAF7982F9095932329
:100DC00091A392A1892B82A37894089590912602F1
:100DD00092FF06C0282F28712830F9F4877F84609D
:100DE00093FF06C0282F28712831F1F4877E846193
:100DF0002091270220FF06C0382F38713830D9F4EF
:100E0000877F816021FF06C0282F28712831D1F407
:100E1000877E816194FD877E0895282F2471243078
:100E2000F9F68B7F8860DCCF282F2471243101F7FD
:100E30008B7E8861DDCF382F3171313019F78E7F8D
:100E40008860E0CF282F2171213121F78E7E8861C3
:100E5000E1CFCF93DF93EC0182389105A9F1D8F56A
:100E60008133910509F496C048F58932910509F45A
:100E70008AC08A9709F495C0C11521E5D20708F008
:100E8000BCC0C11530E5D30708F014C1C83ED10578
:100E900008F09CC0C13ED10560F5C83AD10508F004
:100EA00087C0C53AD10508F0FDC0C130D10509F1B0
:100EB0002097F9F0C430D105E0F440C085339105A6
:100EC00009F45AC0C997C1F680912602837089F04F
:100ED000C0EED0E00EC0833E910599F170F4803EE3
:100EE000910501F1823E910539F68091260282FD3D
:100EF00021C0CE01DF91CF910895863E910561F129
:100F0000873E910571F1843E910509F0B5CF80913E
:100F1000270281FFEECF80912602C7EED0E084FD4C
:100F20000DC0E7CF8091260280FD12C1909127026B
:100F300090FFDFCFC3EED0E084FFDBCFD0E0C0E096
:100F4000D8CF8091260282FD06C19091270290FDA4
:100F5000BFCF84FFCECFF2CF8091260283FDDDCFBD
:100F6000C8CF8091260283FDF9C09091270291FF9E
:100F7000F0CFC4EED0E0BDCF8091260285FFB9CF7F
:100F8000C9E2D0E0B6CF8091260285FFB2CFC5E39B
:100F9000D0E0AFCF8091260286FFABCFCAE2D0E08F
:100FA000A8CF8091260286FFA4CFC1E3D0E0A1CFD5
:100FB000CF3BD10518F6C85AD0E0CC0FDD1FC05F7B
:100FC000DE4F0990D881C02DD46493CFC11540E283
:100FD000D40758F4C11581E0D80708F08ACFC03F84
:100FE000D10508F4ABCFD06584CFC11590E4D90703
:100FF00008F4A4CFDF70D06A7CCFC11525E5D207F5
:1010000000F5C11534E5D30708F08AC0C11543E5E2
:10101000D40708F071C0C11582E5D80708F467C08D
:10102000CE018370992721E030E002C0220F331FE8
:101030008A95E2F7C695C69580E2C89FE001112423
:1010400052C0C11599E5D907A8F4C11528E5D20702
:1010500008F06BC0C11536E5D30708F06FCF8C2FB1
:101060000E94E606C82FD0E0DC2FCC27CC27DF710A
:10107000D0623FCFC1154AE5D40708F45BC0CE016A
:1010800090568115904208F059CF8D2F8F710E9494
:10109000E60690E0982F882788279F719C012C2BCB
:1010A000E901E6CFC55AD0E0C35FDE4FC881D0E08A
:1010B000D0641FCFCE01E4E096958795EA95E1F7DD
:1010C00083702C2F26952695237040E2249F900153
:1010D0001124382B8C2F8370C1E0D0E002C0CC0FDC
:1010E000DD1F8A95E2F7C22BD32BDC6802CFDC2F01
:1010F000CC27C16FD06AFDCECE018370992721E045
:1011000030E002C0220F331F8A95E2F7C695C695DC
:1011100090E2C99FE0011124C22BD32BDA68E9CEFB
:10112000DC2FCC27C46FD06AE4CEDC2FCC27C06F75
:10113000D06ADFCE8C2F8F700E94E60634E0D69501
:10114000C7953A95E1F7CF709C2FEC01D069D1CECD
:10115000C9E3D0E0CECEC2EED0E0CBCEC6EED0E03A
:10116000C8CE8091EE0181111092EE010895809514
:101170009091ED0198239093ED0108958091CA011B
:1011800090919901981301C008958F5F8770FACFED
:101190002AE0929F800D1124982F9770869586954E
:1011A000869524E0829FF0011124E158FE4F50E023
:1011B00040E080E0219130E0092E02C0369527956D
:1011C0000A94E2F721703327042E01C0220F0A94FB
:1011D000EAF7822B4F5F5F4F4430510559F708956E
:1011E0002AE0929F800D1124982F977041E001C052
:1011F000440F9A95EAF786958695869594E0899F9F
:10120000F0011124E158FE4F90E080E070E0519130
:10121000DF0111979B01082E02C0369527950A948D
:10122000E2F7217021952527242325272C93019669
:101230008430910561F708958093280270932A0203
:1012400060932902809150028430F9F48093E90080
:101250008FEF9091E800815095FD06C095ED9A952D
:10126000F1F700008111F5CF8091E80085FF0DC0F6
:1012700050E040E063E070E088E292E00E94A10369
:101280008091E8008E778093E8000895BC0184E0A7
:101290000C941C09BC0183E00C941C099C0184E0A3
:1012A0008093E9009FEF8091E800915085FD06C092
:1012B00085ED8A95F1F700009111F5CF8091E80056
:1012C00085FF0CC050E040E066E070E0C9010E947C
:1012D000A1038091E8008E778093E8000895CF9372
:1012E000DF93EC0180910C018823B1F180912602FB
:1012F00087FF32C060E284E08093E9008FEF909135
:10130000E800815095FD06C095ED9A95F1F7000033
:101310008111F5CF8091E80085FF1BC080910C0101
:1013200070E050E040E0811104C050E040E068E02F
:1013300070E0CE010E94A1038091E8008E77809337
:10134000E80080E2FE01AEE2B2E001900D928A95E3
:10135000E1F7DF91CF91089568E081E0CDCF81E0A2
:101360008093E00080E28093D8001092C9008FE162
:101370009EE40197F1F700C0000087E090EBDC01EC
:1013800080935F0290936002A0936102B093620227
:1013900088E19CE00FB6F894A895809360000FBE9A
:1013A00090936000FFCFCF93DF93C7E4D3E060E07A
:1013B000CE010E94921F2196C11584E0D807B9F78B
:1013C000DF91CF9108956F927F928F929F92AF920B
:1013D000BF92CF92DF92EF92FF920F931F93CF9322
:1013E000DF9384E7C82E82E0D82E9BE8E92EF12C0B
:1013F000E701C055D10936011BC0F50185909490D5
:10140000692DC8010E94921F682DC80101960E9493
:10141000921F82E0A80EB11C0E5F1F4FC017D107AC
:1014200061F784E1680E711C6496CE15DF0529F022
:101430008E01045111095301E0CF7E0180E5E80ED1
:10144000F11C80E5C80ED11C8BEAE81683E0F80693
:1014500079F6DF91CF911F910F91FF90EF90DF9080
:10146000CF90BF90AF909F908F907F906F90089596
:10147000CF93C82F6FEF811162E283E290E00E9468
:10148000921F6FEFC11162E084E290E00E94921F10
:101490006FEFC11167E285E290E0CF910C94921F4B
:1014A00080E00E94380A60E086E290E00E94921F8D
:1014B0000E94E3090E94D30981E00C94380A0F933B
:1014C0001F93CF93DF93C42FD0E0CC0FDD1F24E117
:1014D000629FC00DD11D112430E5839FC00DD11D29
:1014E0001124CE0187960E94841F082F10E0102F30
:1014F0000027CE0188960E94841F9801282BC901DD
:10150000DF91CF911F910F910895462F8A3038F4C3
:10151000743028F46A3018F4672F0C945F0A90E056
:1015200080E00895BF92CF92DF92EF92FF920F93E7
:101530001F93CF93DF937C0100915D0210915E02B7
:101540008091EF019091F001082B192BCFE0D0E0B2
:10155000CC24C394D12CBC2EC6010C2E02C0880F03
:10156000991F0A94E2F780239123892B71F4219724
:1015700090F7B12C8B2DDF91CF911F910F91FF90A0
:10158000EF90DF90CF90BF900895B7018C2F0E940D
:10159000850A0E942907019751F3ECCFCF93DF937F
:1015A000EC010E94920ABE010E94850ADF91CF9150
:1015B0000C942907FC01808191810E94CE0A9295AA
:1015C0009F70963091F058F4925F9F70923058F46B
:1015D000803F19F030F4883E30F481E008959A5F3E
:1015E000F4CF843FD1F380E00895883EB0F3813F8B
:1015F000D1F7F3CF83E290E00E94841F823289F416
:1016000084E290E00E94841F823059F485E290E0E9
:101610000E94841F91E0873209F090E0892F817049
:10162000089580E0FCCFCF9384E090E00E94841F77
:10163000C82F82E290E00E94841F982F8C2FCF91B8
:1016400008954F925F926F927F928F929F92AF9286
:10165000BF92CF92DF92EF92FF920F931F93CF939F
:10166000DF93CDB7DEB728970FB6F894DEBF0FBE75
:10167000CDBF8E010F5F1F4F88E0F80111928A9550
:10168000E9F79EE3E92E91E0F92E680122E4422E6B
:1016900021E0522E66246394712C4CE4842E41E0A8
:1016A000942EF70181917F018F3F09F445C0F89492
:1016B000E82FE295EF70F0E021A18F70A30102C046
:1016C000440F551F8A95E2F7CA01922F982B91A3D8
:1016D00092A18095892382A3789400C0E2E4F1E08E
:1016E00021E030E0B12CA12C41914F3F09F476C0AC
:1016F000A42FA295AF70B0E090968C9190E04F70BF
:1017000002C0959587954A95E2F780FD67C0C901AB
:10171000A82AB92A220F331F8E169F0629F7F70130
:10172000319780818F3F11F00E94CF0650EA5A9581
:10173000F1F7F601B182A082F2E0CF0ED11C4E1477
:101740005F0409F0AECF48E050E0B80184EF91E0CB
:101750000E94C61FFF24F394009709F4F12C892BF3
:1017600009F43FC088E0F801A4EFB1E001900D92C8
:101770008A95E1F781E08093F3010E94EE04909353
:10178000F2018093F1018091F1019091F2010E94A8
:10179000DF04059750F18091F4019091F501909349
:1017A0000702809306028091F6019091F7019093D1
:1017B0000902809308028091F8019091F9019093B9
:1017C0000B0280930A028091FA019091FB019093A1
:1017D0000D0280930C021092F30107C090E080E0AC
:1017E00097CF8091F3018111CECF8F2D28960FB620
:1017F000F894DEBF0FBECDBFDF91CF911F910F9147
:10180000FF90EF90DF90CF90BF90AF909F908F9020
:101810007F906F905F904F9008958091ED0190912F
:10182000EC01892B80935E019091EE019923A1F048
:10183000892B80935E0180910C018823D9F18091DE
:10184000260287FF37C08EE1E0E6F1E090E08150AC
:1018500098F591110E94B10840E250E06CEC71E003
:101860008EE591E00E94C61F892B59F180E2EEE5DA
:10187000F1E0ACECB1E001900D928A95E1F7E091D6
:101880001D02F0911E023097E1F080910C01882337
:1018900059F08091260287FF07C080915E018093F6
:1018A0005F0186E080935E010280F381E02D8EE58A
:1018B00091E0099486E0C8CF2191222341F29F5FF5
:1018C000C6CF089590E080E00E946F0590E080E030
:1018D0000E9459051092EC010E940D0C86E0E5E192
:1018E000F2E0DF011D928A95E9F710920F02109243
:1018F0000E02109210020C94910590935E02809358
:101900005D020C94620C80915D0290915E029C01DC
:10191000267033272630310519F488600C947D0C2D
:10192000877FFCCF21E030E002C0220F331F8A9571
:10193000E2F72095309580915D0290915E028223BE
:1019400093230C947D0C9091CB01809589238093F7
:10195000CB01282F277091F4282F082E000C330B71
:101960009217130659F09091270292FD07C08595B2
:10197000859585950E94920C1092CB010895CF9386
:10198000C0912702C2FB992790F9981799F080FB24
:10199000C2F9C09327026091260284E090E00E9481
:1019A000921F6C2F82E290E00E94921F82E0CF9102
:1019B0000C94A30CCF91089521E030E002C0220FD7
:1019C000331F8A95E2F780915D0290915E02822B2F
:1019D000932B0C947D0C9093F0018093EF010C9469
:1019E000620C1092ED0180910C01E0E6F1E0882399
:1019F00059F08091260287FF07C08EE1DF011D921A
:101A00008A95E9F70C94620C86E0F8CF1F93CF9388
:101A1000DF93CDB7DEB7AA970FB6F894DEBF0FBE3F
:101A2000CDBF82E592E02091F100DC012D93CD0144
:101A3000B2E08A359B07B9F780915302833009F4ED
:101A400072C0B8F4813009F449C0823009F4B3C0DF
:101A50008091E80083FF8BC28091520290915302E3
:101A60009A3008F084C2E92FF0E0EB52F04E0C946B
:101A7000631F8A3009F48EC08B3009F471C089303D
:101A800039F780915202813219F780915602909174
:101A90005702009711F00297D9F68091E800877FEE
:101AA0008093E8008091E80082FF38C09091F300B5
:101AB0008091F200029731F48091F100813011F0B1
:101AC000863021F48091F10080932D028091E8000E
:101AD0008B778093E8000E94CB03BACF80915202AB
:101AE000813A09F0B5CF8091E800877F8093E800C4
:101AF0008091560290915702892B61F460E28EE248
:101B000092E070E00E947D048091E8008B778093E2
:101B1000E8009ECF60E090E080E0F3CF809150023B
:101B20008111C0CF95CF80915202813A09F090CFB8
:101B30008091560290915702892B09F089CF8091AC
:101B4000E800877F8093E8008091E80080FFFCCF69
:101B500080910C018093F1008091E8008E77B9CFDD
:101B600080915202813209F073CF80915602909198
:101B70005702892B09F06CCF8091E800877F809312
:101B8000E8000E94CB038091540280930C010E94D4
:101B9000F10C5ECF80915202813209F059CF8091D1
:101BA000E800877F8093E8000E94CB038091550274
:101BB00080932C024DCF80915202813A09F048CF98
:101BC0008091E800877F8093E8008091E80080FFA3
:101BD000FCCF80912C02BECF803899F0823809F07A
:101BE000C6C1809156028F70873008F0C0C18093C3
:101BF000E9008091EB0085FB882780F91092E900CD
:101C000006C080914E0290914F0291118260909196
:101C1000E800977F9093E8008093F1001092F10024
:101C20008091E8008E779FC1882309F48DC18230AE
:101C300009F09DC180915402811190C1809156029A
:101C40008F702FEF280F263008F091C18093E900A4
:101C50002091EB0020FF82C1933031F48091EB00A2
:101C600080628093EB007AC19091EB009061909339
:101C7000EB0021E030E001C0220F8A95EAF72093C3
:101C8000EA001092EA008091EB008860EACF8111AF
:101C90006EC1109154021F778091E3008078812BF0
:101CA0008093E3008091E800877F8093E8000E94A2
:101CB000CB038091E80080FFFCCF8091E300806837
:101CC0008093E30082E0111183E0809350024FC1C2
:101CD0008058823008F04BC1209154023091550257
:101CE0002C3DE3E03E07A1F583E08A838AE2898305
:101CF0004FB7F894DE01139620E03EE051E2E32F67
:101D0000F0E050935700E49120FF03C0E295EF709C
:101D10003F5FEF708E2F90E0EA30C0F0C7968D9352
:101D20009D932F5F243159F74FBF8091E800877F43
:101D30008093E8006AE270E0CE0101960E947D0483
:101D40008091E8008B778093E80011C1C096E7CFBF
:101D50008091560290915702432F552743305105E9
:101D600009F44AC078F54130510509F47AC08BE591
:101D700090E0E4E9F5E04230510509F0F8C0209127
:101D8000E800277F2093E800209158023091590203
:101D90008217930708F49C0140E02115310509F0F2
:101DA00065C0411163C08091E80082FDC9CF809178
:101DB0005002882329F2853019F28091E80083FFD0
:101DC000F2CFBECF4132510509F43CC04232510539
:101DD00009F0CDC08330910508F0C9C0FC01EE0FB9
:101DE000FF1FE15BFE4F0190F081E02D845B9E4F71
:101DF000DC018C9190E01AC0332721303105D1F0FD
:101E00002115310561F02230310509F0B0C0E1E063
:101E1000F6E0E4918E2F90E0E1E0F6E007C0E9E221
:101E2000F6E0E4918E2F90E0E9E2F6E0009709F405
:101E30009EC0A5CFE5E1F6E0E4918E2F90E0E5E1CC
:101E4000F6E0F4CF8330910508F091C0880F991F18
:101E5000FC01EB5AFE4F0190F081E02D89E090E00B
:101E60008ECF82E190E0EFEEF5E089CF80915002D5
:101E7000882309F465CF853009F462CF8091E800AA
:101E800083FD5ECF8091E80082FD8DCF8091E800D8
:101E900080FF83CF9091F3008091F20021153105EE
:101EA00019F08830910550F041E0089709F040E0C2
:101EB0008091E8008E778093E8006FCF4491409343
:101EC000F1003196215031090196E8CF803809F0B0
:101ED0004EC08091E800877F8093E8008091510296
:101EE0008093F1009DCE811142C0109154021230B6
:101EF000F0F58091E800877F8093E800109351020D
:101F00000E94CB03112311F084E005C08091E3000F
:101F100087FDFACF81E08093500242E061EC81E0DE
:101F20000E94EA0342E261EC84E00E94EA0342E29A
:101F300061EC82E00E94EA0342E260EC83E00E94EE
:101F4000EA038091500213C080915402813079F4E9
:101F500081E0933009F080E080934F021092E90015
:101F60008091E800877F8093E8000E94CB038091F6
:101F7000E80083FF0AC08091E800877F8093E80033
:101F80008091EB0080628093EB00AA960FB6F894E4
:101F9000DEBF0FBECDBFDF91CF911F910895882383
:101FA00021F00E94B7080C940D0C0895882339F095
:101FB0009091ED01982B9093ED010C940D0C0895E8
:101FC000882379F19CEF980F913A38F4682F8EE5C9
:101FD00091E00E94FA040C940D0C90E2980F983056
:101FE00050F4877091E001C0990F8A95EAF7892F24
:101FF0000E94B708F0CF9BE5980F933020F490E053
:1020000080E00C946F0598E5980F973120F490E0EC
:1020100080E00C945905803F20F00E94B8050C9494
:1020200091050895CF93C82F882309F46FC08CEFD2
:102030008C0F813AC0F580910C01882311F18091B9
:10204000260287FF1EC0EC2FE695E695E695F0E0A8
:10205000E25AFE4F828190E04C2F477021E030E041
:1020600002C0220F331F4A95E2F782239323892B64
:1020700091F06C2F8EE591E00E94FA040E940D0C05
:102080000AC0E0E6F1E086E691E02191C21789F30B
:102090008E179F07D1F76C2F8EE591E00E942405E3
:1020A000CF910C940D0C80E28C0F883068F4C770CF
:1020B00021E030E001C0220FCA95EAF78091ED01DE
:1020C000822B8093ED01ECCFEBE5EC0FE33040F495
:1020D000F0E0E35FFE4F808190E0CF910C946F05BC
:1020E000E8E5EC0FE73150F4F0E0EE0FFF1FE05FA2
:1020F000FE4F80819181CF910C945905C03F30F003
:102100008C2F0E947306CF910C949105CF91089566
:102110001F93CF93DF93182FD0E0C0E0893311F4E1
:10212000C0E5D0E0812F0E941210209731F4812F5A
:10213000DF91CF911F910C94E00F8FE99FE0019701
:10214000F1F700C000002197F0CF0F931F93CF93BA
:10215000DF93C62FD42F022FFC0182818823A1F0A8
:1021600060935C020E94EE0490935B0280935A029B
:10217000C77081E001C0880FCA95EAF7DF91CF915F
:102180001F910F910C94D60F80915C02681335C09B
:1021900080915A0290915B020E94DF04883C910575
:1021A00060F510E21D0FCD17B9F080E28C0F88307A
:1021B00040F4C77081E001C0880FCA95EAF70E9419
:1021C000CF0F183048F481E09D2F977001C0880F21
:1021D0009A95EAF70E94D60F802F0E948810183037
:1021E00098F4D77081E001C0880FDA95EAF7DF91A3
:1021F000CF911F910F910C94CF0FC77081E001C058
:10220000880FCA95EAF7F3CFDF91CF911F910F9115
:10221000089569EE7EEF90E080E00E94B01F60E0DC
:1022200082E090E00E94921F60E083E090E00E94D4
:10223000921F1092F0011092EF0160E084E090E0B4
:102240000E94921F60E082E290E00E94921F60E094
:1022500085E090E00E94921F60E086E090E00E949E
:10226000921F6FEF87E090E00E94921F40E050E0E5
:10227000BA0188E090E00E94A41F60E08DE090E049
:102280000E94921F40E050E0BA0188E190E00E9475
:10229000A41F60E087E190E00E94921F40E050E0C0
:1022A000BA018CE190E00E94A41F70E060E080E23F
:1022B00090E00E94B01F40E050E0BA0188E190E059
:1022C0000E94A41F80E00E94380A0E94500A40E049
:1022D00050E0BA018FE090E00E94A41F40E050E07F
:1022E000BA0183E190E00C94A41F3F924F925F9259
:1022F0006F927F928F929F92AF92BF92CF92DF9216
:10230000EF92FF920F931F93CF93DF9300D000D0F3
:102310000F92CDB7DEB78C01FC0183819481892BAC
:1023200031F08081918189238F3F09F05CC50F9046
:102330000F900F900F900F90DF91CF911F910F9101
:10234000FF90EF90DF90CF90BF90AF909F908F90D5
:102350007F906F905F904F903F9008950E94920AF7
:10236000F82E682F89819A810E94F00869817A810C
:102370008F2D0E94850A7C01F8018281882309F44F
:1023800025C5970122513F452031310508F0F1C4A0
:102390008FEF93E00E94841FFEEEEF0E57E4852E30
:1023A00053E0952E8823A1F18091CB01877009F429
:1023B000BECFF8018281882309F4B9CF809127022A
:1023C00082FDB5CF82E00F900F900F900F900F908D
:1023D000DF91CF911F910F91FF90EF90DF90CF9001
:1023E000BF90AF909F908F907F906F905F904F9035
:1023F0003F900C94A30C811424E09206A9F2C4012E
:102400000E94841F811101C0EA943FEF831A930A4E
:10241000E110F1CF1C821B82442443944AE0342E05
:1024200074014FEFE41AF40AC4010E94841F8983E7
:102430001A82882309F4B8CF9FEF980F933000F5E4
:102440008A83498252E0850E911CC7010E94841F35
:102450008B83882309F4A8CFCE0101967C01F70174
:1024600020812223E9F2213009F049C09181828143
:10247000913041F4F2E0EF0EF11C0E94881009C087
:102480004701EACF923049F422E0E20EF11C0E94AB
:1024900012103FEFE31AF30AE2CF933031F432E047
:1024A000E30EF11C0E94E00FF4CF943021F04FEFC7
:1024B000E41AF40AEECF52E0E50EF11C30E020E021
:1024C000B7016F5F7F4FF70141818053990B8A30CD
:1024D000910550F021503109E0F28FE99FE001971A
:1024E000F1F700C00000F6CF329EF001339EF00DF0
:1024F00011249C012E0F3F1F842F7B01E1CFE22F7F
:10250000F0E0EC50FE4F5490822F8695869586958C
:1025100090E0FC01EC51FE4F64902770712C022E6C
:1025200002C0759467940A94E2F7E1E06E22772482
:10253000FC01EC52FE4FA490B12C022E02C0B594C7
:10254000A7940A94E2F7F1E0AF22BB24FC01EC531C
:10255000FE4FC490D12C02C0D594C7942A95E2F7BF
:1025600021E0C222DD246114710419F081EE0E9481
:102570001210A114B10419F086EE0E941210852DDC
:102580000E948810AB2819F086EE0E94E00F6728A1
:1025900019F081EE0E94E00FCD2809F47ACF8CE289
:1025A0006CCF81E00E94DC0C0E94830CFDCE81E0A8
:1025B0000E94920CF9CF82E0F5CF25EFE2162CE5D0
:1025C000F20609F469C008F463C046EFE4164CE56E
:1025D000F40609F465C0882309F416C410925C025D
:1025E00053E0E5165DE5F50608F061C08AEFE816F0
:1025F0008CE5F80630F4C70182509C45449708F0FA
:1026000062C00E94130B9093270280932602F1E18F
:10261000EF16FCE5FF0609F440C108F0B5C039E04B
:10262000E3163CE5F30609F422C108F07AC055E050
:10263000E5165CE5F50609F412C108F05CC093E00C
:10264000E9169CE5F90609F400C108F004C180917F
:1026500026028160F2E0EF16FCE5FF0609F4F8C0FF
:1026600060912602F090270284E090E00E94921F81
:102670006F2D82E290E00E94921F0E94F10C94CE96
:1026800027E245EE65EE9EC326E241EE60EE9AC378
:1026900027E245EE64EE96C326E241EE62EE92C377
:1026A00027E245EE66EE8EC328E241E0EBCF91E6ED
:1026B000E9169DE5F90609F4A4CFE5EAEE16EDE585
:1026C000FE0609F49ECF26E1E2162CE5F20609F09B
:1026D000AAC38091ED018A7A91E009F490E0909389
:1026E0007E0169E2811165E38EE591E00E94240597
:1026F0000E940D0C59CE80912602806227E0E216DE
:102700002CE5F20609F4A4C080912602806138E02D
:10271000E3163CE5F30608F49BC080912602806432
:1027200097C0809126028B7F4DE0E4164CE5F406BD
:1027300009F48EC098F48BE0E8168CE5F80609F4ED
:10274000A0C0809126028C609CE0E9169CE5F90609
:1027500008F47EC0809126028D7F7AC08091260287
:102760008F7EEFE0EE16ECE5FE0609F471C0809175
:102770002602877FF0E1EF16FCE5FF0608F468C04B
:10278000809126028F7D64C02DEFE2162CE5F206C3
:1027900009F47FC060F545E1E4164CE5F40609F460
:1027A0008AC088F483E1E8168CE5F80609F47FC056
:1027B00008F477C00E94F10C90912602892F97FBB4
:1027C00087F9805845C0EBEFEE16ECE5FE0609F4FC
:1027D0004AC008F05AC08091270281602AEFE216B1
:1027E0002CE5F20609F03CCF8093270239CF31E087
:1027F000E3163DE5F30609F46AC098F480912702D8
:102800008C7F5FEFE5165CE5F50671F3B0F1809122
:102810002702982F909591708E7F892B90FB81F9DC
:10282000E3CF91E6E9169DE5F90609F456C0E5EA1D
:10283000EE16EDE5FE0609F457C0F2E0EF16FDE5F1
:10284000FF0609F00DCF60E043C080912602826050
:102850008093260205CF809126028460F9CF809173
:1028600026028860F5CF809127028260BDCF0E944A
:10287000F10C809126028068EBCF80912702836063
:10288000B3CF809126028E7FE3CF809127028E7F87
:10289000ABCF809127028D7FA7CF809126028F7BBF
:1028A000D7CF0E94F10C809126028F77D1CF8091F3
:1028B0002602837FCDCF8091260282FB992790F953
:1028C00021E0922790FB82F990FB83F9C1CF61E070
:1028D0008EE090E00E94921FC3CE90912602892F35
:1028E0008F7E94FF8061B4CF90912602892F8E7FD6
:1028F00090FF8160ADCF0E94F10C3FEF44E35CE0BC
:10290000315040405040E1F700C000000E94AF0944
:1029100081E0AFC280E0ADC2C7010E94C808D82ED6
:10292000B9C22F2D2F70C22E8F2D807F19F0C29427
:1029300090EFC922DD20B9F0CC2069F080E28E0D45
:10294000883010F0811009C08091ED01C82AC09232
:10295000ED010E940D0C8E2D4DC08091EC01C82A16
:10296000C092EC01F6CF8E2D0E94E00FCC2009F42E
:1029700043C080E28E0D883010F0811004C08C2D91
:102980000E94B70806C0C0948091EC01C822C09292
:10299000EC010E940D0C30C03F2D3F70C32E8F2DD7
:1029A000807F803219F0C29480EFC822882089F09D
:1029B00041E0841609F47EC0DD2009F488C0BB2004
:1029C00009F47EC0F801858180FFC5CF8F708583B3
:1029D00077C02091270222FF4AC0DD2009F441C0C0
:1029E000CC2039F08091ED01C82AC092ED010E94FF
:1029F0000D0C80E00E941210E92DE850FF0B349777
:102A000010F40E948505AA2009F491CC8091CB0195
:102A100080FD8DCCF80112828595859585950E9463
:102A2000DC0CC8010E9475118091CB0185958595BC
:102A300085950F900F900F900F900F90DF91CF9191
:102A40001F910F91FF90EF90DF90CF90BF90AF90CC
:102A50009F908F907F906F905F904F903F900C94DD
:102A6000920C80E00E94E00FCC2031F288CFDD2074
:102A7000A1F09091EE018C2D892BB11003C00E9422
:102A8000D60FBACF51E0B512FACF22FDB5CF9817C5
:102A900009F4B2CF8093EE01AFCFB11006C00E940F
:102AA000B1088C2D0E94CF0FA7CF81E0B81609F492
:102AB000A3CFF5CFDD2031F095E09B1508F49CCF36
:102AC0008C2DDDCFE4E0EB1508F496CFEACFBB20E8
:102AD00041F3F9E38F1209C02FEF37EE43E02150A5
:102AE00030404040E1F700C000008E2D0E94E00F12
:102AF00083CF8F2D86958695837061F0813009F0A4
:102B00007BCFC7019370D11002C090E080E00E949B
:102B1000590572CFC7019370D11002C090E080E0D8
:102B20000E946F0569CF8E2DDD2029F00E9473066B
:102B30000E94910561CF0E94B805FACF8F2D837056
:102B400009F040C0D11058CF4E2D429546954770A0
:102B5000440F440F8E2D8F7090E0042E02C0880F1A
:102B6000991F0A94E2F730E020E0E4FE09C02FE06C
:102B700030E002C0220F331F4A95E2F720953095CE
:102B80004F2D469546954370423099F078F4609108
:102B9000EF017091F001413039F0822B932B8623A5
:102BA00097230E94EB0C28CF862B972B822B932BFD
:102BB000F8CF822B932B2091EF013091F0018227E7
:102BC0009327EFCF8695DD2011F08F2D817088231C
:102BD00009F412CF4E2D429546954770440F440F8D
:102BE0008E2D8F7090E0042E02C0880F991F0A94DA
:102BF000E2F730E020E0E4FE09C02FE030E002C060
:102C0000220F331F4A95E2F7209530954F2D4695B8
:102C100046954370423099F078F460915D0270916E
:102C20005E02413039F0822B932B862397230E943A
:102C30007D0CE2CE862B972B822B932BF8CF822B09
:102C4000932B20915D0230915E0282279327EFCF74
:102C50005F2D5F70F52EDD2029F0852F0E94DC0CA2
:102C60008E2D0DCF8E2D0E94CF0F8F2D0E94920C96
:102C7000C3CE8E2D92EF8916A1F1981570F0E0EF7A
:102C80008E16D1F0F1EF8F1691F0DD2009F461C0BE
:102C9000B11061CE8F2D8F7128C023EF821641F1C4
:102CA00034EF8312F2CF8091270282FF32C08F2D42
:102CB0008F71DD20D9F219C0DD2071F044E04B1591
:102CC00008F49ACE2F2D2F7181E090E002C0880F7A
:102CD000991F2A95E2F7B5CF55E05B1508F48CCE25
:102CE000F1CF8F2D8F71D110C1CF0E94DC0C84CE1B
:102CF00090E080E0DD2009F49ACF9F2D9F7121E0C4
:102D000030E0F90102C0EE0FFF1F9A95E2F7CF0104
:102D10008ECFDD2099F0FF2DFF71FF2E8F2F0E94A7
:102D2000DC0C8091270282FD07C028E0F29EC001E2
:102D3000112483608093CB018F2DD7CF81E00E9437
:102D4000A30C31E03B1508F057CE82E00E94A30CA3
:102D500053CEBB2059F0893309F0C7CE4FEF57EE61
:102D600083E0415050408040E1F7BDCE8F2D8F7100
:102D70007DCFF0E1EF16FFE5FF0609F412CC21E16B
:102D8000E2162FE5F20609F416CC43EFE4164CE503
:102D9000F40609F479CC08F010CC98EDE9169CE51E
:102DA000F90609F46DCCE9EDEE16ECE5FE0609F442
:102DB0007BCCF7EDEF16FCE5FF0609F00CCC26E224
:102DC00041EE61EEC8010E94A510EECA30E1E316A3
:102DD0003FE5F30609F4EBCB41E1E4164FE5F406D9
:102DE000A1F682E0E5CB85E0DE01119601900D921F
:102DF0008A95E1F7F801228189819A812111AECA71
:102E00000E94C808F82EB2CAF6E1EF16FCE5FF06EC
:102E100091F580917E0169E2811165E38EE591E093
:102E20000E94FA0465CC2AE5E2162DE5F20609F4C3
:102E30006FCD68F4E1144CE5F40609F45CCD5EED69
:102E4000E5165CE5F506B9F40E940911ADCA8BE5FB
:102E5000E8168DE5F80609F45DCD9CE5E9169DE5DB
:102E6000F90649F48091270282FB882780F991E0D6
:102E700089270E94BF0CF8018281E080F1808823BD
:102E800009F44ACDC7010E94920AD82E682FC701C3
:102E90000E94F008B7018D2D0E94850A0E94290723
:102EA0007C01882EF801D280B580B2943FE0B32235
:102EB0008091CB018770C1F0AD2CDD20B1F08F2D5A
:102EC000807F803421F080E28E0D883068F0809120
:102ED000270282FD09C082E00E94A30C8091CB01F1
:102EE0008770AA24A3948111A12C9F2C92942FE087
:102EF0009222FBE0F91508F47FCDE92DF0E0E152D4
:102F0000F04E0C94631F1F93CF93DF938091980131
:102F1000807FA9F480919501882389F08091CA016E
:102F2000D09199016091930170919401A0919601C3
:102F3000B0919701C62FC72316E0D81304C0DF91C4
:102F4000CF911F91089590E0109711F0CF3F19F4A1
:102F500001968770F2CF189F9001199F300D1124B0
:102F6000F901E656FE4F41814713F2CF40814613E7
:102F7000EFCF42814111ECCF438154814A1B5B0B5F
:102F8000483C510528F7809198018F7080618093AB
:102F90009801F901E156FE4F80818F708061808336
:102FA00083E991E00E947511DF91CF911F910C94FC
:102FB000BE08AF92BF92CF92DF92EF92FF920F9333
:102FC0001F93CF93DF93CDB7DEB761970FB6F89419
:102FD000DEBF0FBECDBF8C0185E0F801DE011D967E
:102FE00001900D928A95E1F7F801E28083E9A82E1D
:102FF00081E0B82E6091960170919701611571057D
:1030000009F432C19091930140919401892F842356
:103010008F3F09F429C120813181C380D480F09091
:103020009501F601E61BF70BFF2009F4E8C080913B
:103030009801582F507FE83CF10508F0ABC05111C2
:1030400077C0FE2C431321C092131FC0E1101DC096
:103050008F70806180939801C5010E9475118091E5
:103060009801F80185838F2D61960FB6F894DEBF25
:103070000FBECDBFDF91CF911F910F91FF90EF90C9
:10308000DF90CF90BF90AF900895CD2829F0822F88
:1030900083238F3F09F003C180E0F82FF170DF2E0A
:1030A00080FF3CC08091CA014091990156E0841391
:1030B00015C02D873E878D859E850E94CE0A292FBB
:1030C00022952F702230F0F0243018F59F70F1F027
:1030D000F8019581907FD1F4D12C1EC090E0589FCB
:1030E000F001599FF00D1124E656FE4F6181361311
:1030F00006C06081261303C06281E6120FC00196EC
:103100008770D5CF9F7011F0882331F3805E8830AF
:1031100018F3C8010E947511FD2CA5CFEE2009F40B
:10312000A2CF80919801816080939801F12C9BCF70
:10313000431306C0921304C0F801EE2009F479C0CD
:10314000C8010E94DA0A882309F1EE20F9F0809183
:103150009801803270F0209193013091940138876A
:103160002F831986DB86CA868C87CE0107960E943C
:10317000751186E0F801A3E9B1E001900D928A95FE
:10318000E1F70E948317FF24F3946DCFC8010E94DA
:103190007511F9CF51110AC083E991E00E947511B0
:1031A00086E0F50111928A95E9F7C0CF43130FC06D
:1031B00092130DC0E1100BC0F8018583C8010E9475
:1031C000751186E0F50111928A95E9F74CCFC80197
:1031D0000E94DA0A8823D1F2EE20C1F28091980190
:1031E000803238F220919301309194013A832983FF
:1031F0001B82DD82CC828E83CE010196B8CFE83C63
:10320000F105F8F6FE2CEE2009F243131FC09213CD
:103210001DC08091980180FD10C0982F907F69F0AB
:10322000F8018583903F31F0982F907F905F8F70E9
:10323000892B8583C8010E94751186E0F801A3E9F6
:10324000B1E001900D928A95E1F70DCFC8010E947F
:10325000DA0A81118ECF8091980181608093980164
:10326000C8010E947511FFCEEE2009F48FCFC8016E
:103270000E94DA0AF82E882309F488CF86E0F80144
:10328000A3E9B1E001900D928A95E1F78091930155
:10329000909194010E94CE0A0E948317E4CE81E0AF
:1032A0008E25FBCE1F93CF93DF93CDB7DEB7679705
:1032B0000FB6F894DEBF0FBECDBF4B8B5C8B6D8B12
:1032C0007E8B8F8B61111092EC011A8A198A85E02E
:1032D000FE017396DE011D9601900D928A95E1F72D
:1032E00086E0FE013D96DE01179601900D928A95CB
:1032F000E1F7CE0107960E94D917882389F016E0DE
:103300008091CA0190919901891349C067960FB6BF
:10331000F894DEBF0FBECDBFDF91CF911F9108950E
:1033200086E0FE013796DE01119601900D928A9596
:10333000E1F78A859B85892B11F38F8198858923F5
:103340008F3FE9F22091990130E0C9010196877021
:1033500099274091CA014817190671F40E94F10C8F
:10336000109299011092CA0186E0E3E9F1E0DF01D1
:103370001D928A95E9F7C3CF96E0929FD001939F63
:10338000B00D1124A656BE4FFE01319601900D924C
:103390009A95E1F7809399010E94BE08B0CF819F72
:1033A000C001112486569E4F0E94D917882309F424
:1033B000ADCF8091CA0190E00196877099278093E4
:1033C000CA019ECF1F920F920FB60F9211242F9316
:1033D0003F934F935F936F937F938F939F93AF939D
:1033E000BF93CF93DF93EF93FF93D091E900DF700A
:1033F0008091EC00C82FC17080FDC0E81092E900F8
:103400008091F000877F8093F00078940E94060DF1
:103410001092E9008091F00088608093F000CD2B3D
:10342000CF70C093E900FF91EF91DF91CF91BF91F1
:10343000AF919F918F917F916F915F914F913F914C
:103440002F910F900FBE0F901F9018951F920F9203
:103450000FB60F9211242F933F934F935F936F9367
:103460007F938F939F93AF93BF93EF93FF9380913D
:10347000E10082FF09C08091E20082FF05C08091D7
:10348000E1008B7F8093E1008091DA0080FF24C00F
:103490008091D80080FF20C08091DA008E7F8093D9
:1034A000DA008091D90080FF9DC080E189BD82E172
:1034B00089BD09B400FEFDCF81E080935002809168
:1034C0002B02811109C00E9451030E941C048091AB
:1034D000E20084608093E2008091E10080FF17C0E9
:1034E0008091E20080FF13C08091E2008E7F809384
:1034F000E2008091E20080618093E2008091D80038
:1035000080628093D80019BC85E08093500280913E
:10351000E10084FF2BC08091E20084FF27C080E19E
:1035200089BD82E189BD89B5982F917080FFFBCF5D
:103530008091D8008F7D8093D8008091E1008F7EAC
:103540008093E1008091E2008F7E8093E200809181
:10355000E20081608093E20080915102882309F4A7
:1035600047C084E080935002809150028091E10036
:1035700083FF27C08091E20083FF23C08091E10098
:10358000877F8093E10082E0809350021092510285
:103590008091E1008E7F8093E1008091E2008E7F38
:1035A0008093E2008091E20080618093E20042E03B
:1035B00060E080E00E94EA038091F00088608093E0
:1035C000F000FF91EF91BF91AF919F918F917F910B
:1035D0006F915F914F913F912F910F900FBE0F9080
:1035E0001F90189519BC1092500210922B0274CFA4
:1035F0008091E30087FD93E090935002B5CF7894DB
:103600001F921FB61F9211248F939F93AF93BF9366
:103610008091220290912302A0912402B091250270
:103620000196A11DB11D8093220290932302A093C5
:103630002402B0932502BF91AF919F918F911F906B
:103640001FBE1F9018951F921FB61F9211248F93B3
:103650009F93AF93BF9380912102811113C08091FA
:10366000220290912302A0912402B091250241965A
:10367000A11DB11D8093220290932302A0932402E6
:10368000B0932502BF91AF919F918F911F901FBE64
:103690001F901895CDB7DEB7AA970FB6F894DEBF86
:1036A0000FBECDBF84B7877F84BF0FB6F894A895AF
:1036B00080916000886180936000109260000FBE6E
:1036C00080E890E00FB6F8948093610090936100D9
:1036D0000FBE85B7806885BF85B7806885BF8DECD4
:1036E00096E090935D0180935C010E9451030E94DB
:1036F0001C048091E20084608093E20078948091C1
:1037000050028823A1F01091E9001F709091EC0005
:10371000892F817090FD80E8182B1092E90080912C
:10372000E80083FD0E94060D1F701093E90082E0FF
:1037300084BD93E095BD9AEF97BD80936E000E9483
:10374000FA0A811102C00E94500A86EC0E94CF063C
:1037500087E90E94CF0686E60E94CF0684E90E9490
:10376000CF0602E411E0D8018D918D018F3F11F059
:103770000E94CF06B1E00C341B07A9F788E0E6E011
:10378000F2E0DF01282F1D922A95E9F7E4EFF1E03E
:10379000DF011D928A95E9F790E080E00E948C1F7E
:1037A000893E9E4F21F40E94FA0A811102C00E94B4
:1037B000091182E090E00E94841F8093FC010E9426
:1037C000130B90932702809326020E94210BEFEFA8
:1037D000F6E721E0E150F0402040E1F700C00000B2
:1037E0000E94210B8091060280FF08C06FEF7FEFDF
:1037F00090E080E00E94B01F0E94AF0983E090E05B
:103800000E94841F90E00E94EB0C80E091E0909376
:103810001E0280931D0258E1E52EF12C60E4A62ED5
:103820007EE0C72E72E0D72EE0E1BE2E80915002DE
:1038300012E1853009F478C10E94210B882359F0E8
:103840008FB7F89440912202509123026091240294
:10385000709125028FBFA6E0B2E0EDEFF1E010E03D
:1038600000E0702F8D919D9121913191281739079A
:1038700009F46AC12827392760E088248394912CB1
:10388000A90148215921452B09F458C169A37AA3FC
:103890009C012821392191E0232B09F490E09BA37E
:1038A0000E94EE048160782F9DA38CA349A15AA1A8
:1038B0006BA18DA10E945219000F111FF801E35056
:1038C000FE4F80819181882699269182808286E0B0
:1038D000E5E1F2E0DE01119601900D928A95E1F7A3
:1038E00090901702809018021091190200911A020C
:1038F00010921702109218021092190210921A02D6
:10390000892D882909F448C08091130290911402EE
:103910000E94DF049C0190910F02992309F4BAC21E
:1039200025313105C8F19F3F19F09F5F90930F0239
:10393000992059F00E9453069FEF19140CF491E05E
:10394000899F802D112480931702882059F00E94AE
:1039500053069FEF18140CF491E0899F802D1124D9
:1039600080931802309117023323B1F0209118028E
:10397000222391F045EB3403C0011124992309F46B
:10398000FAC09093170245EB2403900111243323CE
:1039900009F4F5C030931802812F802B09F448C038
:1039A00080911102909112020E94DF049C0190917B
:1039B0000E02992309F469C221353105C8F19F3FF0
:1039C00019F09F5F90930E02112359F00E94310667
:1039D0009FEF11160CF491E0899F802D11248093A4
:1039E0001902002359F00E9431069FEF10160CF4C3
:1039F00091E0899F802D112480931A023091190241
:103A00003323B1F020911A02222391F045EB3403C5
:103A1000C0011124992309F4B6C09093190245EB13
:103A2000240390011124332309F4B1C030931A0206
:103A30008091170290911802892B90911902892B7D
:103A400090911A02892B11F00E94910586E0FE01E7
:103A50003196A5E1B2E001900D928A95E1F70E94BE
:103A6000850590910502891380930502809150028B
:103A7000843009F0DBCE83E08093E9008091E80098
:103A800082FFD4CE8091E80090E085FF06C00E94BE
:103A90007003882309F47FC091E08091E8008B7760
:103AA0008093E800992309F4C1CEE981E150E33124
:103AB00008F005C1F0E0E551F04E0C94631F8091D1
:103AC0005002843009F1109221020FB6F894A895A3
:103AD000E09260000FBEA092600083B7817F846097
:103AE00083BF83B7816083BF7894889583B78E7FC7
:103AF00083BF0FB6F894A895809160008861809389
:103B00006000109260000FBE80914F02882361F028
:103B10000E94210BE6E0F2E081919191892B09F05E
:103B200095C1CE16DF06C1F780915002853009F4A9
:103B3000C6CF0E94F10C0E9485057ECE6F5F880C77
:103B4000991C6A3009F09CCE0F5F1F4F043011059D
:103B500009F087CE8FEF8EA38FA318A60E94EE04E4
:103B60008160782F9AA789A74EA15FA168A58AA531
:103B70000E945219ACCE81E08093170204CF81E0FD
:103B80008093180209CF81E08093190248CF81E029
:103B900080931A024DCF00E210E0CE0101964C0155
:103BA0008091E80085FD0AC08091E8008B778093C2
:103BB000E8000E947003882399F36ECF8091F10092
:103BC000D4018D934D010150110951F765CF1A822F
:103BD00089E08B833FC08A81823009F44DC18330F4
:103BE000A9F0813009F06BC02FB7F89460912202E0
:103BF0007091230280912402909125022FBF0E9490
:103C0000691F6B837C838D839E8324C08091060211
:103C1000909107029827892798279C838B8380910E
:103C20000802909109029827892798279E838D83FF
:103C300080910A0290910B029827892798279887EC
:103C40008F8380910C0290910D02982789279827E5
:103C50009A87898780915002843009F0E7CD1091CE
:103C6000E9001F709091EC00892F817090FD80E831
:103C7000182B82E08093E9008091E80080FF0DC05E
:103C800050E040E060E270E0CE0101960E94A103A6
:103C90008091E8008E778093E8001F701093E90010
:103CA000C5CD8A81823059F46B817C818D819E8162
:103CB0000E94691F86E290E00E94921FCBCF8FEF97
:103CC0008983C8CF4C816B818A810E945F0A9827C3
:103CD000892798279E838D83BDCF8D809E809824D1
:103CE000892498248A810B81B4E10B9F80011124DF
:103CF000E0E58E9F000D111D11248C8190E0880F4E
:103D0000991F080F191F692DC80187960E94921FDD
:103D1000682DC8018896D0CF0E94E3099BCFBA8254
:103D200099CF1A8289EB55CF0A811B811027012771
:103D30001027CE0101963C018C80DC01A80DB11D3D
:103D40004D01C801895B9C4F8614970409F482CF0A
:103D5000093B110550F40E94841FF30184830F5F17
:103D60001F4FBFEF6B1A7B0AECCFD30114961C9246
:103D7000F6CF0A811B81102701271027FE013196FB
:103D80003F018C80800E912E911CC801895B9C4F55
:103D90008016910609F45ECF093B110528F4D30182
:103DA00014966C910E94921FBFEF6B1A7B0A0F5FF3
:103DB0001F4FEBCF0E94D3094DCF8AE08A834ACFB1
:103DC0000A811B81102701271027FE0131963F0130
:103DD0008C80CF01880D911D4C01C80187968614F7
:103DE000970409F437CF0032A3E01A0750F40E9479
:103DF000841FF30184830F5F1F4FBFEF6B1A7B0A91
:103E0000ECCFD30114961C92F6CF0A811B811027A8
:103E100001271027FE0131963F018C80800E912EE4
:103E2000911CC80187968016910609F413CF0032C1
:103E3000F3E01F0728F4D30114966C910E94921F9F
:103E4000BFEF6B1A7B0A0F5F1F4FEBCFB9BC19BDD9
:103E500009B400FEFDCF8091D8008F7D8093D800FB
:103E60008091E00082608093E0008091E00081FD1D
:103E7000FCCF0E94F10C58CE86E290E00E94841F95
:103E80001B821C821D828E83E5CE2B30310508F00B
:103E900098CDCECD2B30310508F047CD7DCD97FBA9
:103EA000072E16F4009407D077FD09D00E94701FEA
:103EB00007FC05D03EF4909581959F4F089570952D
:103EC00061957F4F0895EE0FFF1F0590F491E02D4F
:103ED00009946927962769277827872778270895DF
:103EE000AA1BBB1B51E107C0AA1FBB1FA617B70720
:103EF00010F0A61BB70B881F991F5A95A9F780953C
:103F00009095BC01CD010895F999FECF92BD81BD78
:103F1000F89A992780B50895A8E1B0E042E050E012
:103F20000C94B81F262FF999FECF92BD81BDF89A47
:103F3000019700B4021639F01FBA20BD0FB6F894ED
:103F4000FA9AF99A0FBE08950396272F0E94931F9D
:103F50000E94921F252F0E94931F242F0C94931FC1
:103F60000196272F0E94931F0C94921FDC01CB0116
:103F7000FC01F999FECF06C0F2BDE1BDF89A319679
:103F800000B40D9241505040B8F70895FB01DC0198
:103F900004C08D910190801921F441505040C8F720
:103FA000881B990B0895F894FFCFEC0D140EB70FF2
:103FB000140EB70F470E680EB70F660F730F9114EC
:103FC0009114CC14CC1479159315FC14FC149E1583
:103FD000281639163916E71DEB1D511E621E6D1E7F
:103FE0008C1E5F1E5F1E5F1E5F1E5F1E8F1E911E5A
:0C3FF000941EB91EDA1EDD1EE01E051F27
:103FFC00DC046F094E094A094609DB0401818283FE
:10400C00E200E900EA00B500B600B700CD0083017C
:10401C00CC008A0192019401210223022402250280
:10402C00260227022A02B300B4006F007000C69764
:10403C006694343536323331F7F6F5F44022B684D3
:0C404C00016201AC00A605BF05DF050005
:00000001FF
