:100000000C9427020C9444020C9444020C94440275
:100010000C9444020C9444020C9444020C94440248
:100020000C9444020C9444020C9499190C945519A4
:100030000C94961A0C9444020C9444020C944402BE
:100040000C9444020C9444020C9444020C94440218
:100050000C9444020C94721A0C9444020C944402C2
:100060000C9444020C9444020C9444020C944402F8
:100070000C9444020C9444020C9444020C944402E8
:100080000C9444020C9444020C9444020C944402D8
:100090000C9444020C9444020C9444020C944402C8
:1000A0000C9444020C9444020C944402050109028D
:1000B000A10185020901A1000509190129081500FE
:1000C0002501950875018102050109300931158165
:1000D000257F95027508810609381581257F9501D0
:1000E00075088106050C0A38021581257F95017572
:1000F000088106C0C005010980A101850319012AF4
:10010000B700150126B700950175108100C0050CD8
:100110000901A101850419012AA002150126A002E6
:10012000950175108100C005010906A1018506052C
:100130000719E029E71500250195087501810205D9
:1001400007190029EF1500250195F07501810205B9
:10015000081901290595057501910295017503910D
:1001600001C00660FF0961A1010962150026FF00B8
:100170009520750881020963150026FF00952075FA
:10018000089102C005010906A101050719E029E748
:1001900015002501950875018102950175088101F9
:1001A0000507190029FF150026FF0095067508812F
:1001B000000508190129059505750191029501753C
:1001C000039101C0000000000000000000000000DA
:1001D000000000000000000000000000000000001F
:1001E00000000000000000007E0F00D4FFFFFFC7EA
:1001F0000000007800000000000000002A2B28000A
:1002000000000000000000000000000000000029C5
:10021000000000002C1E3420212224342627252E05
:10022000362D3738271E1F2021222324252633333D
:10023000362E37381F0405060708090A0B0C0D0E69
:100240000F101112131415161718191A1B1C1D2F35
:100250003130232D350405060708090A0B0C0D0E55
:100260000F101112131415161718191A1B1C1D2F15
:100270003130354C14001A000800150017001C001E
:1002800018000C00120013000400160007000900FB
:100290000A000B000D000E000F002D431D001B0077
:1002A0000600190005001100100036003700384420
:1002B000E000E300E200E1002A422C412800650052
:1002C0004C0029001E001F002000210022002300F6
:1002D00024002500260027002B0000000000350028
:1002E0002F0030003100330034002D0000000000EA
:1002F000000000002E002D000000010001000100A0
:1003000001000100010001000100000001000100E6
:10031000010001003A003B003C003D003E003F0070
:1003200040004100420043002B0044004500000013
:10033000000000000000000000000000390046003E
:1003400047004800000053000000AA00A900A800D0
:100350000100010001000100000000000000000099
:10036000000000002900000000000000000049001B
:100370004B0052004E004C002B000000000000001B
:1003800000004A00500051004F0000000000000033
:100390000000000000004D00000000000000000010
:1003A00001000100010001002A000000000000001F
:1003B0000000000009025B00030100A0FA0904002C
:1003C0000001030101000921110100012240000781
:1003D000058103080001090401000203000000096F
:1003E00021110100012222000705820320000107DC
:1003F00005030320000109040200010300000009B5
:10040000211101000122B60007058403200001121A
:1004100001000200000008AFBE0100000001020060
:10042000011203620061006E0069006D0065003416
:1004300000300000001203730070006F007200654E
:100440000077006F00680000000403090400112415
:100450001FBECFEFDAE0DEBFCDBF11E0A0E0B1E01C
:10046000E0E0FFE302C005900D92AC35B107D9F78B
:1004700022E0ACE5B1E001C01D92A636B207E1F77B
:100480000E94BD1A0C94551F0C940000E8EDF0E09A
:1004900080818E7F80831092E2001092DA001092A9
:1004A000E100A0EEB0E08C9181608C9380818F7729
:1004B000808319BCA7EDB0E08C918E7F8C938081F6
:1004C0008F7E80831092320208952091E400309153
:1004D000E50095E6A9012091EC00822F817020FFB4
:1004E00006C08091E80080FF06C080E0089520915A
:1004F000E80022FD1AC080915702882389F08530D8
:1005000089F08091EB0085FD0FC02091E4003091CF
:10051000E50042175307F9F29150E1F684E008959F
:1005200082E0089583E0089581E00895EF92FF92BC
:100530000F931F93CF937C018B010E946502C82FFC
:10054000811117C08091E80085FD0BC08091E80003
:100550008E778093E8000E946502882399F3C82F64
:1005600008C0F70181917F018093F10001501109CA
:1005700049F78C2FCF911F910F91FF90EF90089525
:100580008091590287FF13C08091E80082FF06C066
:100590008091E8008B778093E80004C08091570237
:1005A0008111F2CF0895809157028823D9F3809169
:1005B000E80080FFF8CF8091E8008E77ECCF982F8D
:1005C0009093E900242F762F50E0891731F0709135
:1005D000EC002091ED005091F00021FD07C09F5FDD
:1005E000973071F78093E90081E008953091EB0036
:1005F0003E7F3093EB003091ED003D7F3093ED0076
:100600003091EB0031603093EB007093EC0020935D
:10061000ED005093F0002091EE0027FDE0CF80E048
:100620000895CF92DF92EF92FF920F931F93CF9393
:10063000DF93C8EDD0E088818F7E8883E7EDF0E01E
:1006400080818160808384E082BF81E08093320278
:1006500088818E7F888302EE10E0F801108210926C
:10066000DA0081EEC82ED12CF601108288818F77B6
:10067000888388818068888388818F7D888319BC7E
:100680001092570210925802109256021092550280
:1006900090EEE92EF12CF70180818B7F8083888199
:1006A0008160888342E060E080E00E94DF02F60122
:1006B00080818E7F8083F80180818160808380814A
:1006C00088608083F70180818E7F8083888180614C
:1006D0008883DF91CF911F910F91FF90EF90DF9072
:1006E000CF900895FC0180915F029091600286177F
:1006F0009707A0F06115710529F49091E8009E77A5
:100700009093E80090E06115710551F4911108C0D3
:100710008091E80082FF34C080E00895BC01F2CFF0
:10072000809157028823C1F18530C1F18091E800A2
:1007300083FD30C08091E80082FDEACF8091E8001F
:1007400080FFE1CF8091F3002091F200382F6115F6
:10075000710519F02830310558F091E02830310545
:1007600009F090E02091E8002E772093E800CBCFAD
:1007700081918093F100615071092F5F3F4FE7CF66
:1007800080915702882341F0853041F08091E80044
:1007900083FFBECF81E0089582E0089583E008954D
:1007A000089580913402089587E797E790930108B0
:1007B0008093000888E19AE00FB6F894A89580939A
:1007C00060000FBE90936000FFCF9C014FB7F8947C
:1007D0008091290290912A02A0912B02B0912C02C3
:1007E0004FBF821B930B08952FB7F8948091290275
:1007F00090912A02A0912B02B0912C022FBF089554
:1008000020910C012223C9F020912D0227FF15C051
:10081000E62FE695E695E695EE31D8F4E80FF92F48
:10082000F11D677021E030E001C0220F6A95EAF700
:1008300020958281282322830895FC013296089610
:100840002191621303C0DF0111971C92E817F90789
:10085000B9F7089520910C012223C1F020912D02B7
:1008600027FF14C0E62FE695E695E695EE31F8F4FD
:10087000E80FF92FF11D677021E030E001C0220F71
:100880006A95EAF78281822B82830895FC01329671
:100890002FEF30E04191641751F02F3F19F44111CF
:1008A00001C0232F3F5F3630A9F72F3F09F4089589
:1008B000820F911D27FD9A95FC0162830895209176
:1008C0002602309127022817390771F090932702EA
:1008D00080932602E0912402F0912502309721F0C6
:1008E0000084F185E02D0994089520912202309131
:1008F00023022817390771F0909323028093220274
:10090000E0912402F0912502309721F00680F781D2
:10091000E02D09940895E0912402F091250230978A
:1009200021F00190F081E02D099480E008950E946B
:10093000F4039C0190911E0280911F02982B21F0DC
:1009400030931B0220931A02909120028091210281
:10095000982B21F03093190220931802E091240281
:10096000F0912502309749F082E080931C020480C8
:10097000F581E02D8CE192E00994089540911E02EA
:10098000803F59F480911F0287FF0DC010921F0213
:1009900041110BC01092160208C0813F81F4809172
:1009A0001F0218169CF3442381F08091200290913D
:1009B0002102892B09F05AC0109215020895823F36
:1009C00049F447FFF0CF10921E0280911F0281115F
:1009D000ECCFE0CF833F19F41416ACF3E4CF909141
:1009E0002002893F29F41916F4F610922002DBCF79
:1009F0008A3F19F497FFD7CFF8CF909121028B3F10
:100A000029F497FFD0CF10922102CDCF8C3F19F45B
:100A10001916CCF3C8CF9CE0980F953090F4845F02
:100A2000990B21E030E0B90102C0660F771F8A956B
:100A3000E2F7CB01809590911D02892380931D02DE
:100A4000B2CF8D3F31F4809117028E7F80931702D1
:100A5000AACF8E3F21F4809117028D7FF7CF8F3F71
:100A600009F0A1CF809117028B7FF0CF089580917C
:100A7000170280FD16C081FD16C082FD16C0809150
:100A800015028823A1F0883280F428E0829FC001FB
:100A9000112468E270E00E94D11E862F672B39F086
:100AA000089582E0089584E0089588E0089581E043
:100AB00008958091170280FD14C081FD14C082FD4D
:100AC00016C080911602882381F08E3180F420E5D3
:100AD000829FC00111246EE170E00E94D11E862F1A
:100AE000089584E1089588E2089588E0089580E5F6
:100AF0000895803F31F40E945905819580931F022B
:100B00000895813F19F40E945905F8CF823F31F4CE
:100B10000E945905819580931E020895833F19F420
:100B20000E945905F8CF893F29F40E943705809328
:100B3000200208958A3F21F40E9437058195F7CF5E
:100B40008B3F31F40E9437058195809321020895EF
:100B50008C3F19F40E943705F8CF9CE0980F953030
:100B600070F4845F990B21E030E001C0220F8A9578
:100B7000EAF780911D02822B80931D0208958D3F1C
:100B800031F48091170281608093170208958E3F9F
:100B900021F4809117028260F7CF8F3FB9F78091DF
:100BA00017028460F1CF80E00895F894E82FE29571
:100BB000EF70F0E031A1282F2F7081E090E001C0AC
:100BC000880F2A95EAF7982F9095932391A392A1E5
:100BD000892B82A37894089590912D0292FF06C0EC
:100BE000282F28712830F9F4877F846093FF06C08E
:100BF000282F28712831F1F4877E846120912E02FC
:100C000020FF06C0382F38713830D9F4877F8160D3
:100C100021FF06C0282F28712831D1F4877E8161F9
:100C200094FD877E0895282F24712430F9F68B7F58
:100C30008860DCCF282F2471243101F78B7E8861F6
:100C4000DDCF382F3171313019F78E7F8860E0CFDA
:100C5000282F2171213121F78E7E8861E1CFCF933A
:100C6000DF93EC0182389105A9F1D8F58133910524
:100C700009F496C048F58932910509F48AC08A972B
:100C800009F495C0C11521E5D20708F0BCC0C11513
:100C900030E5D30708F014C1C83ED10508F09CC068
:100CA000C13ED10560F5C83AD10508F087C0C53A04
:100CB000D10508F0FDC0C130D10509F12097F9F048
:100CC000C430D105E0F440C08533910509F45AC021
:100CD000C997C1F680912D02837089F0C0EED0E0F3
:100CE0000EC0833E910599F170F4803E910501F1AB
:100CF000823E910539F680912D0282FD21C0CE0100
:100D0000DF91CF910895863E910561F1873E91056F
:100D100071F1843E910509F0B5CF80912E0281FFDB
:100D2000EECF80912D02C7EED0E084FD0DC0E7CF5D
:100D300080912D0280FD12C190912E0290FFDFCF95
:100D4000C3EED0E084FFDBCFD0E0C0E0D8CF80910D
:100D50002D0282FD06C190912E0290FDBFCF84FF2F
:100D6000CECFF2CF80912D0283FDDDCFC8CF809111
:100D70002D0283FDF9C090912E0291FFF0CFC4EEB9
:100D8000D0E0BDCF80912D0285FFB9CFC9E2D0E080
:100D9000B6CF80912D0285FFB2CFC5E3D0E0AFCFB3
:100DA00080912D0286FFABCFCAE2D0E0A8CF809120
:100DB0002D0286FFA4CFC1E3D0E0A1CFCF3BD10568
:100DC00018F6C85AD0E0CC0FDD1FC05FDE4F099087
:100DD000D881C02DD46493CFC11540E2D40758F414
:100DE000C11581E0D80708F08ACFC03FD10508F4CB
:100DF000ABCFD06584CFC11590E4D90708F4A4CF58
:100E0000DF70D06A7CCFC11525E5D20700F5C1158A
:100E100034E5D30708F08AC0C11543E5D40708F0CC
:100E200071C0C11582E5D80708F467C0CE01837090
:100E3000992721E030E002C0220F331F8A95E2F7A4
:100E4000C695C69580E2C89FE001112452C0C11525
:100E500099E5D907A8F4C11528E5D20708F06BC0B9
:100E6000C11536E5D30708F06FCF8C2F0E94EC0533
:100E7000C82FD0E0DC2FCC27CC27DF71D0623FCF4A
:100E8000C1154AE5D40708F45BC0CE019056811520
:100E9000904208F059CF8D2F8F710E94EC0590E0A1
:100EA000982F882788279F719C012C2BE901E6CF7A
:100EB000C55AD0E0C35FDE4FC881D0E0D0641FCFF9
:100EC000CE01E4E096958795EA95E1F783702C2FA3
:100ED00026952695237040E2249F90011124382BFB
:100EE0008C2F8370C1E0D0E002C0CC0FDD1F8A954B
:100EF000E2F7C22BD32BDC6802CFDC2FCC27C16FEB
:100F0000D06AFDCECE018370992721E030E002C087
:100F1000220F331F8A95E2F7C695C69590E2C99FC6
:100F2000E0011124C22BD32BDA68E9CEDC2FCC27C9
:100F3000C46FD06AE4CEDC2FCC27C06FD06ADFCE7E
:100F40008C2F8F700E94EC0534E0D695C7953A95AA
:100F5000E1F7CF709C2FEC01D069D1CEC9E3D0E08E
:100F6000CECEC2EED0E0CBCEC6EED0E0C8CE8091E1
:100F7000F10181111092F101089580959091F00195
:100F800098239093F00108958091CD0190919C0158
:100F9000981301C008958F5F8770FACF2AE0929F5F
:100FA000800D1124982F977086958695869524E05C
:100FB000829FF0011124EE57FE4F50E040E080E0A8
:100FC000219130E0092E02C0369527950A94E2F768
:100FD00021703327042E01C0220F0A94EAF7822BD6
:100FE0004F5F5F4F4430510559F708952AE0929FB3
:100FF000800D1124982F977041E001C0440F9A95FD
:10100000EAF786958695869594E0899FF0011124EC
:10101000EE57FE4F90E080E070E05191DF011197B4
:101020009B01082E02C0369527950A94E2F721709D
:1010300021952527242325272C930196843091057B
:1010400061F7089580932F0270933102609330020C
:10105000809157028430F9F48093E9008FEF9091EA
:10106000E800815095FD06C095ED9A95F1F70000D6
:101070008111F5CF8091E80085FF0DC050E040E080
:1010800063E070E08FE292E00E9496028091E800B7
:101090008E778093E8000895BC0184E00C942208C8
:1010A000BC0183E00C9422089C0184E08093E90059
:1010B0009FEF8091E800915085FD06C085ED8A95EF
:1010C000F1F700009111F5CF8091E80085FF0CC089
:1010D00050E040E066E070E0C9010E949602809115
:1010E000E8008E778093E8000895CF93DF93EC01BA
:1010F00080910C018823B1F180912D0287FF32C0CD
:1011000060E284E08093E9008FEF9091E8008150E5
:1011100095FD06C095ED9A95F1F700008111F5CF88
:101120008091E80085FF1BC080910C0170E050E0C9
:1011300040E0811104C050E040E068E070E0CE0182
:101140000E9496028091E8008E778093E80080E20A
:10115000FE01A5E3B2E001900D928A95E1F7DF91DF
:10116000CF91089568E081E0CDCFCF93DF93C7E4BE
:10117000D3E060E0CE010E94141F2196C11584E0E7
:10118000D807B9F7DF91CF9108956F927F928F9230
:101190009F92AF92BF92CF92DF92EF92FF920F9306
:1011A0001F93CF93DF9384E7C82E82E0D82E9BE86D
:1011B000E92EF12CE701C055D10936011BC0F5011C
:1011C00085909490692DC8010E94141F682DC80154
:1011D00001960E94141F82E0A80EB11C0E5F1F4FE3
:1011E000C017D10761F784E1680E711C6496CE15B3
:1011F000DF0529F08E01045111095301E0CF7E0172
:1012000080E5E80EF11C80E5C80ED11C8BEAE816DB
:1012100083E0F80679F6DF91CF911F910F91FF904F
:10122000EF90DF90CF90BF90AF909F908F907F9086
:101230006F900895CF93C82F6FEF811162E283E220
:1012400090E00E94141F6FEFC11162E084E290E011
:101250000E94141F6FEFC11167E285E290E0CF9109
:101260000C94141F80E00E941A0960E086E290E06E
:101270000E94141F0E94C5080E94B50881E00C94CA
:101280001A090F931F93CF93DF93C42FD0E0CC0F95
:10129000DD1F24E1629FC00DD11D112430E5839F25
:1012A000C00DD11D1124CE0187960E94061F082F64
:1012B00010E0102F0027CE0188960E94061F98018B
:1012C000282BC901DF91CF911F910F910895462FCF
:1012D0008A3038F4743028F46A3018F4672F0C948C
:1012E000410990E080E00895BF92CF92DF92EF92A3
:1012F000FF920F931F93CF93DF937C0100916402C1
:10130000109165028091F2019091F301082B192B45
:10131000CFE0D0E0CC24C394D12CBC2EC6010C2E3F
:1013200002C0880F991F0A94E2F780239123892B2A
:1013300071F4219790F7B12C8B2DDF91CF911F91F4
:101340000F91FF90EF90DF90CF90BF900895B7017D
:101350008C2F0E9467090E942F06019751F3ECCF52
:10136000CF93DF93EC010E947409BE010E946709CC
:10137000DF91CF910C942F06FC01808191810E9416
:10138000B00992959F70963091F058F4925F9F70DB
:10139000923058F4803F19F030F4883E30F481E008
:1013A00008959A5FF4CF843FD1F380E00895883E9A
:1013B000B0F3813FD1F7F3CF83E290E00E94061FA4
:1013C000823289F484E290E00E94061F823059F450
:1013D00085E290E00E94061F91E0873209F090E0DC
:1013E000892F8170089580E0FCCFCF9384E090E056
:1013F0000E94061FC82F82E290E00E94061F982FCD
:101400008C2FCF9108954F925F926F927F928F921F
:101410009F92AF92BF92CF92DF92EF92FF920F9383
:101420001F93CF93DF93CDB7DEB728970FB6F8940D
:10143000DEBF0FBECDBF8E010F5F1F4F88E0F801EA
:1014400011928A95E9F79EE3E92E91E0F92E680161
:1014500022E4422E21E0522E66246394712C4CE447
:10146000842E41E0942EF70181917F018F3F09F492
:1014700045C0F894E82FE295EF70F0E021A18F705D
:10148000A30102C0440F551F8A95E2F7CA01922FAB
:10149000982B91A392A18095892382A3789400C070
:1014A000E2E4F1E021E030E0B12CA12C41914F3F8A
:1014B00009F476C0A42FA295AF70B0E090968C91FD
:1014C00090E04F7002C0959587954A95E2F780FDB0
:1014D00067C0C901A82AB92A220F331F8E169F069A
:1014E00029F7F701319780818F3F11F00E94D505D0
:1014F00050EA5A95F1F7F601B182A082F2E0CF0EE0
:10150000D11C4E145F0409F0AECF48E050E0B801A2
:1015100087EF91E00E94481FFF24F394009709F49D
:10152000F12C892B09F43FC088E0F801A7EFB1E066
:1015300001900D928A95E1F781E08093F6010E9477
:10154000F4039093F5018093F4018091F40190915C
:10155000F5010E94E503059750F18091F701909104
:10156000F80190930E0280930D028091F901909101
:10157000FA019093100280930F028091FB019091E9
:10158000FC0190931202809311028091FD019091D1
:10159000FE0190931402809313021092F60107C08B
:1015A00090E080E097CF8091F6018111CECF8F2D12
:1015B00028960FB6F894DEBF0FBECDBFDF91CF9156
:1015C0001F910F91FF90EF90DF90CF90BF90AF9061
:1015D0009F908F907F906F905F904F900895809133
:1015E000F0019091EF01892B80935E019091F101C0
:1015F0009923A1F0892B80935E0180910C018823AF
:10160000D9F180912D0287FF37C08EE1E0E6F1E04D
:1016100090E0815098F591110E94B70740E250E0A8
:101620006FEC71E08EE591E00E94481F892B59F123
:1016300080E2EEE5F1E0AFECB1E001900D928A9529
:10164000E1F7E0912402F09125023097E1F08091DA
:101650000C01882359F080912D0287FF07C08091EB
:101660005E0180935F0186E080935E010280F381DA
:10167000E02D8EE591E0099486E0C8CF21912223E8
:1016800041F29F5FC6CF089590E080E00E9475040C
:1016900090E080E00E945F041092EF010E94EF0A48
:1016A00086E0ECE1F2E0DF011D928A95E9F7109205
:1016B000160210921502109217020C949704909340
:1016C0006502809364020C94440B809164029091B3
:1016D00065029C01267033272630310519F4886095
:1016E0000C945F0B877FFCCF21E030E002C0220F1B
:1016F000331F8A95E2F7209530958091640290918E
:101700006502822393230C945F0B9091CE01809508
:1017100089238093CE01282F277091F4282F082E3B
:10172000000C330B9217130659F090912E0292FD84
:1017300007C08595859585950E94740B1092CE0102
:101740000895CF93C0912E02C2FB992790F9981764
:1017500099F080FBC2F9C0932E0260912D0284E0C3
:1017600090E00E94141F6C2F82E290E00E94141FF0
:1017700082E0CF910C94850BCF91089521E030E069
:1017800002C0220F331F8A95E2F780916402909184
:101790006502822B932B0C945F0B9093F301809343
:1017A000F2010C94440B1092F00180910C01E0E6E0
:1017B000F1E0882359F080912D0287FF07C08EE168
:1017C000DF011D928A95E9F70C94440B86E0F8CF6F
:1017D0001F93CF93DF93CDB7DEB7AA970FB6F894D8
:1017E000DEBF0FBECDBF89E592E02091F100DC01A4
:1017F0002D93CD01B2E081369B07B9F780915A0253
:10180000833009F472C0B8F4813009F449C08230E1
:1018100009F4B3C08091E80083FF8BC28091590224
:1018200090915A029A3008F084C2E92FF0E0E95A08
:10183000F04E0C94E51E8A3009F48EC08B3009F40A
:1018400071C0893039F780915902813219F780913E
:101850005D0290915E02009711F00297D9F6809197
:10186000E800877F8093E8008091E80082FF38C01D
:101870009091F3008091F200029731F48091F10091
:10188000813011F0863021F48091F1008093340290
:101890008091E8008B778093E8000E94C002BACF65
:1018A00080915902813A09F0B5CF8091E800877F95
:1018B0008093E80080915D0290915E02892B61F433
:1018C00060E285E392E070E00E9472038091E8009C
:1018D0008B778093E8009ECF60E090E080E0F3CFCC
:1018E000809157028111C0CF95CF80915902813AE2
:1018F00009F090CF80915D0290915E02892B09F0F2
:1019000089CF8091E800877F8093E8008091E8008C
:1019100080FFFCCF80910C018093F1008091E80062
:101920008E77B9CF80915902813209F073CF8091BF
:101930005D0290915E02892B09F06CCF8091E800E6
:10194000877F8093E8000E94C00280915B028093B1
:101950000C010E94D30B5ECF80915902813209F0B5
:1019600059CF8091E800877F8093E8000E94C002F1
:1019700080915C02809333024DCF80915902813A6D
:1019800009F048CF8091E800877F8093E80080913C
:10199000E80080FFFCCF80913302BECF803899F001
:1019A000823809F0C6C180915D028F70873008F0DF
:1019B000C0C18093E9008091EB0085FB882780F906
:1019C0001092E90006C08091550290915602911143
:1019D00082609091E800977F9093E8008093F100F7
:1019E0001092F1008091E8008E779FC1882309F45E
:1019F0008DC1823009F09DC180915B02811190C13F
:101A000080915D028F702FEF280F263008F091C172
:101A10008093E9002091EB0020FF82C1933031F4E4
:101A20008091EB0080628093EB007AC19091EB0093
:101A300090619093EB0021E030E001C0220F8A9585
:101A4000EAF72093EA001092EA008091EB008860A8
:101A5000EACF81116EC110915B021F778091E30084
:101A60008078812B8093E3008091E800877F8093CA
:101A7000E8000E94C0028091E80080FFFCCF8091C6
:101A8000E30080688093E30082E0111183E080939B
:101A900057024FC18058823008F04BC120915B0241
:101AA00030915C022C3DE3E03E07A1F583E08A83A0
:101AB0008AE289834FB7F894DE01139620E03EE076
:101AC00051E2E32FF0E050935700E49120FF03C070
:101AD000E295EF703F5FEF708E2F90E0EA30C0F03C
:101AE000C7968D939D932F5F243159F74FBF8091F7
:101AF000E800877F8093E8006AE270E0CE010196FB
:101B00000E9472038091E8008B778093E80011C1F6
:101B1000C096E7CF80915D0290915E02432F5527DA
:101B20004330510509F44AC078F54130510509F4B4
:101B30007AC08BE590E0E4EBF3E04230510509F028
:101B4000F8C02091E800277F2093E80020915F02F1
:101B5000309160028217930708F49C0140E0211540
:101B6000310509F065C0411163C08091E80082FD34
:101B7000C9CF80915702882329F2853019F28091CC
:101B8000E80083FFF2CFBECF4132510509F43CC0DB
:101B90004232510509F0CDC08330910508F0C9C02B
:101BA000FC01EE0FFF1FE15BFE4F0190F081E02D85
:101BB000845B9E4FDC018C9190E01AC0332721306A
:101BC0003105D1F02115310561F02230310509F0E0
:101BD000B0C0E1E2F4E0E4918E2F90E0E1E2F4E0C5
:101BE00007C0E9E4F4E0E4918E2F90E0E9E4F4E04A
:101BF000009709F49EC0A5CFE5E3F4E0E4918E2FB1
:101C000090E0E5E3F4E0F4CF8330910508F091C073
:101C1000880F991FFC01EB5AFE4F0190F081E02DD7
:101C200089E090E08ECF82E190E0EFE0F4E089CFB0
:101C300080915702882309F465CF853009F462CF7B
:101C40008091E80083FD5ECF8091E80082FD8DCF1A
:101C50008091E80080FF83CF9091F3008091F200A3
:101C60002115310519F08830910550F041E00897B1
:101C700009F040E08091E8008E778093E8006FCF14
:101C800044914093F1003196215031090196E8CFFB
:101C9000803809F04EC08091E800877F8093E8008B
:101CA000809158028093F1009DCE811142C0109125
:101CB0005B021230F0F58091E800877F8093E800A6
:101CC000109358020E94C002112311F084E005C055
:101CD0008091E30087FDFACF81E08093570242E0D4
:101CE00061EC81E00E94DF0242E261EC84E00E944C
:101CF000DF0242E261EC82E00E94DF0242E260EC3D
:101D000083E00E94DF028091570213C080915B0242
:101D1000813079F481E0933009F080E080935602BD
:101D20001092E9008091E800877F8093E8000E948C
:101D3000C0028091E80083FF0AC08091E800877F9D
:101D40008093E8008091EB0080628093EB00AA967C
:101D50000FB6F894DEBF0FBECDBFDF91CF911F91BC
:101D60000895882341F080959091EF018923809315
:101D7000EF010C94EF0A0895882339F09091EF0158
:101D8000982B9093EF010C94EF0A0895882321F08B
:101D90000E94BD070C94EF0A0895882339F09091B2
:101DA000F001982B9093F0010C94EF0A089588238A
:101DB00079F19CEF980F913A38F4682F8EE591E015
:101DC0000E9400040C94EF0A90E2980F983050F4AF
:101DD000877091E001C0990F8A95EAF7892F0E94D8
:101DE000BD07F0CF9BE5980F933020F490E080E0A2
:101DF0000C94750498E5980F973120F490E080E0FA
:101E00000C945F04803F20F00E94BE040C94970461
:101E10000895CF93C82F882309F46FC08CEF8C0FDF
:101E2000813AC0F580910C01882311F180912D0237
:101E300087FF1EC0EC2FE695E695E695F0E0E25AA6
:101E4000FE4F828190E04C2F477021E030E002C0CD
:101E5000220F331F4A95E2F782239323892B91F0B7
:101E60006C2F8EE591E00E9400040E94EF0A0AC0E8
:101E7000E0E6F1E086E691E02191C21789F38E1742
:101E80009F07D1F76C2F8EE591E00E942A04CF9135
:101E90000C94EF0A80E28C0F883068F4C77021E060
:101EA00030E001C0220FCA95EAF78091F001822B41
:101EB0008093F001ECCFEBE5EC0FE33040F4F0E081
:101EC000E35FFE4F808190E0CF910C947504E8E5CC
:101ED000EC0FE73150F4F0E0EE0FFF1FE05FFE4F34
:101EE00080819181CF910C945F04C03F30F08C2FA2
:101EF0000E947905CF910C949704CF9108951F9378
:101F0000CF93DF93182FD0E0C0E0893311F4C0E500
:101F1000D0E0812F0E94090F209731F4812FDF91AB
:101F2000CF911F910C94D70E8FE99FE00197F1F7A5
:101F300000C000002197F0CF0F931F93CF93DF9342
:101F4000C62FD42F022FFC0182818823A1F0609339
:101F500063020E94F4039093620280936102C7704F
:101F600081E001C0880FCA95EAF7DF91CF911F91F8
:101F70000F910C94CD0E80916302681335C080914F
:101F80006102909162020E94E503883C910560F530
:101F900010E21D0FCD17B9F080E28C0F883040F4AD
:101FA000C77081E001C0880FCA95EAF70E94C60E8B
:101FB000183048F481E09D2F977001C0880F9A95E2
:101FC000EAF70E94CD0E802F0E947F0F183098F400
:101FD000D77081E001C0880FDA95EAF7DF91CF91E1
:101FE0001F910F910C94C60EC77081E001C0880F3D
:101FF000CA95EAF7F3CFDF91CF911F910F91089522
:10200000DF92EF92FF920F931F93CF93DF93E82F0E
:10201000F0E0EC50FE4FD490282F2695269526957B
:1020200030E0F901EC51FE4F0491877010E0082E6A
:1020300002C0159507950A94E2F701701127F9017E
:10204000EC52FE4FE490F12C082E02C0F594E79478
:102050000A94E2F791E0E922FF24F901EC53FE4FE4
:10206000C491D0E002C0D595C7958A95E2F7C170BA
:10207000DD270115110519F081EE0E94090FE11409
:10208000F10419F086EE0E94090F8D2D0E947F0F3A
:10209000EF2819F086EE0E94D70E012B19F081EE81
:1020A0000E94D70ECD2B51F08CE2DF91CF911F9182
:1020B0000F91FF90EF90DF900C947F0FDF91CF9105
:1020C0001F910F91FF90EF90DF90089569EE7EEFE2
:1020D00090E080E00E94321F60E082E090E00E9489
:1020E000141F60E083E090E00E94141F1092F3013F
:1020F0001092F20160E084E090E00E94141F60E022
:1021000082E290E00E94141F60E085E090E00E946F
:10211000141F60E086E090E00E94141F6FEF87E0DC
:1021200090E00E94141F40E050E0BA0188E090E087
:102130000E94261F60E08DE090E00E94141F40E0A6
:1021400050E0BA0188E190E00E94261F60E087E13C
:1021500090E00E94141F40E050E0BA018CE190E052
:102160000E94261F70E060E080E290E00E94321F33
:1021700040E050E0BA0188E190E00E94261F80E034
:102180000E941A090E94320940E050E0BA018FE033
:1021900090E00E94261F40E050E0BA0183E190E009
:1021A0000C94261F8F929F92AF92BF92CF92DF9294
:1021B000EF92FF920F931F93CF93DF9300D000D045
:1021C0000F92CDB7DEB77C01FC0183819481892B0E
:1021D00031F08081918189238F3F09F07FC50F9075
:1021E0000F900F900F900F90DF91CF911F910F9153
:1021F000FF90EF90DF90CF90BF90AF909F908F9027
:1022000008950E947409182F682F89819A810E946D
:10221000F60769817A81812F0E9467098C01F70195
:102220008281882309F44EC5C80182519F45409799
:1022300008F070C48FEF93E00E94061F025177E40C
:10224000C72E73E0D72E882369F18091CE01877065
:1022500031F2F7018281882311F280912E0282FDF2
:10226000BECF82E00F900F900F900F900F90DF91F4
:10227000CF911F910F91FF90EF90DF90CF90BF9083
:10228000AF909F908F900C94850BC114F4E0DF0603
:10229000E1F2C6010E94061F811101C001502FEF1B
:1022A000C21AD20A0111F1CF1C821B82BB24B39443
:1022B0006AE0A62E86010F5F1F4FC6010E94061F0F
:1022C00089831A82882309F4C0CF9FEF980F933037
:1022D00008F58A83B98232E0C30ED11CC8010E947E
:1022E000061F8B83882309F4B0CF8E010F5F1F4F29
:1022F000F80180818823F1F2813009F043C0918197
:102300008281913049F40E5F1F4F0E947F0F0F5F53
:102310001F4FEECF6801E9CF923029F40E5F1F4FB7
:102320000E94090FF4CF933029F40E5F1F4F0E94D3
:10233000D70EEDCF943019F00F5F1F4FE8CF0E5F2F
:102340001F4F30E020E0B8016F5F7F4FF8014181FF
:102350008053990B8A30910550F021503109B8F221
:102360008FE99FE00197F1F700C00000F6CFA29E31
:10237000F001A39EF00D11249C012E0F3F1F842F0E
:102380008B01E1CF0E940010C2CF81E00E94BE0B02
:102390000E94650B5ACF81E00E94740BF9CF82E056
:1023A000F5CF82EE0E94090FFDC383E00E94BC0EB0
:1023B00088E10E94090F88E10E94D70E83E00E9405
:1023C000B10EF0C380917F01811103C083E50E94AB
:1023D0007F0F82EE0E94090F8FE39CE90197F1F7CE
:1023E00000C0000087E50E947F0FDCC386EE0E94DC
:1023F0007F0F88E1F8CF8650FAC396EF980F96309A
:1024000020F0805D0E940010F4C3895AFBCF82EE59
:102410000E94D70E04C48CE20E947F0F809180013D
:10242000882309F4FCC389E30E947F0FF8C382EE7E
:102430000E94D70E80917F018111F1C383E5F4CF13
:1024400088E2F2CF033F3CE5130739F188F4083DF9
:102450009CE51907F1F0093DECE51E0751F1073D38
:10246000FCE51F0709F0DFC326E241EE61EE0DC077
:10247000053F2CE51207C9F0A0F027E245EE66EE15
:10248000063F8CE5180709F0CEC3C7010E949C0FD8
:10249000DCCE27E245EE65EEF8CF26E241EE60EEB7
:1024A000F4CF27E245EE64EEF0CF26E241EE62EE95
:1024B000ECCF28E241E0EFCF01363DE5130709F408
:1024C000C8C3053A8DE5180709F4C3C306312CE5E6
:1024D000120709F021C48091F0018A7A91E009F491
:1024E00090E09093810169E2811165E38EE591E0CE
:1024F0000E942A040E94EF0AA8CE80912D028062D9
:1025000007302CE5120709F492C080912D028061FA
:1025100008301C4508F48BC080912D02806487C070
:102520000D308CE5180709F49BC098F480912D02BA
:102530008E7F0B30ECE51E0709F479C080912D02E7
:102540008C600C301C4508F472C080912D028D7F88
:102550006EC080912D028F7E0F302CE5120709F49A
:1025600066C080912D02877F00311C4508F45FC052
:1025700080912D028F7D5BC00D3F8CE5180709F41B
:1025800077C050F50531ECE51E0709F47FC098F4DB
:1025900080912D02837F03312CE5120709F447C097
:1025A00008F46EC00E94D30B90912D02892F97FBE7
:1025B00087F980583CC00B3F8CE5180709F442C0EE
:1025C00008F052C080912E0281600A3F1C4509F03C
:1025D00069C380932E0266C30130FDE51F0709F42D
:1025E00061C090F480912E028C7F0F3F3CE5130771
:1025F00081F390F180912E02982F909591708E7FAB
:10260000892B90FB81F9E5CF01369DE5190709F487
:102610004FC0053AEDE51E0709F451C002301D45D3
:1026200009F040C360E03FC080912D02826080933A
:102630002D0238C380912D028460F9CF80912D0244
:102640008860F5CF80912E028260C3CF0E94D30BA9
:1026500080912D028068EBCF80912E028360B9CFEC
:1026600080912D028B7FE3CF80912E028E7FB1CFA0
:1026700080912E028D7FADCF80912D028F7BD7CFA1
:102680000E94D30B80912D028F77D1CF80912D02A4
:1026900082FB992790F921E0922790FB82F990FB29
:1026A00083F9C5CF61E08EE090E00E94141FFAC26A
:1026B00090912D02892F8F7E94FF8061B8CF9091E9
:1026C0002D02892F8E7F90FF8160B1CF0E94D30BA6
:1026D0003FEF84E39CE0315080409040E1F700C040
:1026E00000000E94D40381E037C380E035C3C801F5
:1026F0000E94CE07D82E41C3212F2F70C22E107FEB
:1027000019F0C29490EFC922DD20B9F0CC2069F015
:1027100080E2800F883010F0811009C08091F001B4
:10272000C82AC092F0010E94EF0A802F4AC080910F
:10273000EF01C82AC092EF01F6CF802F0E94D70E7A
:10274000CC2009F440C0005E083010F0811004C0B5
:102750008C2D0E94BD0706C0C0948091EF01C82255
:10276000C092EF010E94EF0A2EC0312F3F70C32E9E
:10277000107F103219F0C29480EFC822882089F0AF
:1027800081E0881609F478C0DD2009F482C0BB20FE
:1027900009F478C0F701858180FFC7CF8F708583EA
:1027A00071C020912E0222FF44C0DD20E1F1CC2037
:1027B00039F08091F001C82AC092F0010E94EF0A1E
:1027C00080E00E94090FE92DE850FF0B349710F4C8
:1027D0000E948B04AA2009F402CD8091CE0180FDD5
:1027E000FECCF70112828595859585950E94BE0BDA
:1027F000C7010E94D2108091CE018595859585955F
:102800000F900F900F900F900F90DF91CF911F912D
:102810000F91FF90EF90DF90CF90BF90AF909F907F
:102820008F900C94740B80E00E94D70ECC2059F24C
:102830008FCFDD20A1F09091F101892F8C29B1106B
:1028400003C00E94CD0EBFCFE1E0BE12FACF22FD41
:10285000BACF981709F4B7CF8093F101B4CFB11074
:1028600006C00E94B7078C2D0E94C60EACCFF1E0C7
:10287000BF1609F4A8CFF5CFDD2031F025E02B15E8
:1028800008F4A1CF8C2DDDCF34E03B1508F49BCFAD
:10289000EACFBB2041F3F9E38F1235C12FEF37EEBA
:1028A00083E0215030408040E1F700C000002BC1A0
:1028B000812F86958695837061F0813009F083CFF2
:1028C000C8019370D11002C090E080E00E945F04C4
:1028D0007ACFC8019370D11002C090E080E00E94CE
:1028E000750471CF802FDD2029F00E9479050E94A8
:1028F000970469CF0E94BE04FACF812F837009F03C
:102900003FC0D11060CF402F429546954770440F8D
:10291000440F802F8F7090E0042E02C0880F991F03
:102920000A94E2F730E020E004FF09C02FE030E035
:1029300002C0220F331F4A95E2F720953095169575
:1029400016951370123099F078F44091F20150917D
:10295000F301113039F0822B932B842395230E94AD
:10296000CD0B31CF842B952B822B932BF8CF822B41
:10297000932B2091F2013091F30182279327EFCF1F
:102980008695DD2011F0812F8170882309F41BCFFB
:10299000402F429546954770440F440F802F8F700B
:1029A00090E0042E02C0880F991F0A94E2F730E0ED
:1029B00020E004FF09C02FE030E002C0220F331FE7
:1029C0004A95E2F7209530951695169513701230BA
:1029D00099F078F44091640250916502113039F019
:1029E000822B932B842395230E945F0BECCE842BA8
:1029F000952B822B932BF8CF822B932B2091640263
:102A00003091650282279327EFCF1F70DD2029F0D8
:102A1000812F0E94BE0B802F14CF802F0E94C60EE4
:102A2000812F0E94740BCFCE802F92EF891699F1DF
:102A3000981570F0E0EF8E16D1F0F1EF8F1691F04F
:102A4000DD2009F45BC0B11070CE812F8F7127C0DB
:102A500023EF821639F134EF8312F2CF80912E02E8
:102A600082FF2EC0812F8F71DD20D9F218C0DD20AA
:102A700069F084E08B1508F4A6CE1F7181E090E028
:102A800002C0880F991F1A95E2F7B8CF95E09B1501
:102A900008F499CEF2CF812F8F71D110C2CF0E944E
:102AA000BE0B91CE90E080E0DD2009F49DCF1F7138
:102AB00081E090E002C0880F991F1A95E2F794CF49
:102AC000DD2089F01F71812F0E94BE0B80912E02A4
:102AD00082FD07C0E8E01E9FC0011124836080933F
:102AE000CE01812FDCCF81E00E94850BF1E0FB1548
:102AF00008F069CE82E00E94850B65CEBB2039F0DC
:102B0000893309F4CBCE802F0E94D70E5CCE812F63
:102B10008F7187CF0031FFE51F0709F436CC0131F3
:102B20002FE5120709F43BCCC801815E9C4505974F
:102B300040F46FE1600F6093FF018CE090E00E9431
:102B4000141F17FF7FCCF7018281882309F46BC023
:102B50000E948B0486958170809380010E948B0473
:102B6000817080937F018091FF01813039F48091E1
:102B70008001882319F089E30E947F0F8091F00182
:102B800080937E011092F0018091FF01813009F461
:102B90000CCC882309F405CC823009F413CC8430A2
:102BA00009F424CCEFE3FCE93197F1F700C0000011
:102BB0005801E894B7F84CE0C42ED12C5AE0852E89
:102BC000912CC5010C2C02C0969587950A94E2F7CA
:102BD0008F709091FF01923009F00FCC8A3008F08D
:102BE0000ACC90E00996B4010E94D11E875A0E9437
:102BF0007F0FF4E0CF1AD1082CEFC2162FEFD206C8
:102C000001F78091FF01813009F405CC882309F494
:102C1000FECB823009F40BCC843009F411CC8091C6
:102C20007E018093F001F7018281882309F467C057
:102C3000109263020330FDE51F0708F03DCC0A3F08
:102C40002CE5120730F4C80182509C45449708F0E7
:102C50003DCC0E94F50990932E0280932D02013104
:102C60009CE5190709F408CD08F086CC0930FCE58D
:102C70001F0709F4EBCC08F053CC05303CE51307F3
:102C800009F4DCCC08F039CC03309CE5190709F4D1
:102C9000CBCC08F0CFCC80912D02816002301C4556
:102CA00009F4C5CC60912D0210912E0284E090E0D1
:102CB0000E94141F612F82E290E00E94141F0E9464
:102CC000D30BC3CA00313FE5130709F464CB0131CC
:102CD0008FE5180709F035CF82E05ECB85E0DE0195
:102CE000119601900D928A95E1F7F7012281898171
:102CF0009A81211186CA0E94CE07182F8ACA0631EE
:102D00001C4561F58091810169E2811165E38EE5E1
:102D100091E00E940004EECB0A352DE5120709F47C
:102D2000E2CC58F401158CE5180709F4CFCC0E3D20
:102D30001C45A1F40E94661088CA0B35EDE51E07FC
:102D400009F4D3CC0C351D4549F480912E0282FB49
:102D5000882780F991E089270E94A10BF7018281E1
:102D600000811181882309F4C2CCC8010E94740932
:102D7000D82E682FC8010E94F607B8018D2D0E9439
:102D800067090E942F068C01882EF701D280B5803A
:102D9000B2943FE0B3228091CE018770C1F0AD2C98
:102DA000DD20B1F0812F807F803421F080E2800F20
:102DB000883068F080912E0282FD09C082E00E9476
:102DC000850B8091CE018770AA24A3948111A12C38
:102DD000912E92942FE09222FBE0F91508F4F3CCA7
:102DE000E92DF0E0EF59F04E0C94E51E1F93CF93C0
:102DF000DF9380919B01807FA9F4809198018823C3
:102E000089F08091CD01D0919C01609196017091E3
:102E10009701A0919901B0919A01C62FC72316E09E
:102E2000D81304C0DF91CF911F91089590E01097BF
:102E300011F0CF3F19F401968770F2CF189F9001DF
:102E4000199F300D1124F901E356FE4F41814713BC
:102E5000F2CF40814613EFCF42814111ECCF438145
:102E600054814A1B5B0B483C510528F780919B011C
:102E70008F70806180939B01F901EE55FE4F808138
:102E80008F708061808386E991E00E94D210DF918B
:102E9000CF911F910C94C407AF92BF92CF92DF9253
:102EA000EF92FF920F931F93CF93DF93CDB7DEB7CF
:102EB00061970FB6F894DEBF0FBECDBF8C0185E0E1
:102EC000F801DE011D9601900D928A95E1F7F80157
:102ED000E28086E9A82E81E0B82E60919901709178
:102EE0009A016115710509F432C1909196014091E2
:102EF0009701892F84238F3F09F429C120813181D3
:102F0000C380D480F0909801F601E61BF70BFF20F8
:102F100009F4E8C080919B01582F507FE83CF105EF
:102F200008F0ABC0511177C0FE2C431321C092139F
:102F30001FC0E1101DC08F70806180939B01C5018F
:102F40000E94D21080919B01F80185838F2D61969C
:102F50000FB6F894DEBF0FBECDBFDF91CF911F91AA
:102F60000F91FF90EF90DF90CF90BF90AF900895BA
:102F7000CD2829F0822F83238F3F09F003C180E001
:102F8000F82FF170DF2E80FF3CC08091CD01409181
:102F90009C0156E0841315C02D873E878D859E8544
:102FA0000E94B009292F22952F702230F0F0243092
:102FB00018F59F70F1F0F8019581907FD1F4D12C34
:102FC0001EC090E0589FF001599FF00D1124E35668
:102FD000FE4F6181361306C06081261303C06281F3
:102FE000E6120FC001968770D5CF9F7011F088232D
:102FF00031F3805E883018F3C8010E94D210FD2C96
:10300000A5CFEE2009F4A2CF80919B01816080932F
:103010009B01F12C9BCF431306C0921304C0F8010F
:10302000EE2009F479C0C8010E94BC09882309F187
:10303000EE20F9F080919B01803270F02091960192
:103040003091970138872F831986DB86CA868C8753
:10305000CE0107960E94D21086E0F801A6E9B1E001
:1030600001900D928A95E1F70E94F616FF24F394E1
:103070006DCFC8010E94D210F9CF51110AC086E964
:1030800091E00E94D21086E0F50111928A95E9F74D
:10309000C0CF43130FC092130DC0E1100BC0F80155
:1030A0008583C8010E94D21086E0F50111928A95AD
:1030B000E9F74CCFC8010E94BC098823D1F2EE2069
:1030C000C1F280919B01803238F2209196013091BB
:1030D00097013A8329831B82DD82CC828E83CE01C5
:1030E0000196B8CFE83CF105F8F6FE2CEE2009F287
:1030F00043131FC092131DC080919B0180FD10C01F
:10310000982F907F69F0F8018583903F31F0982FD8
:10311000907F905F8F70892B8583C8010E94D210A9
:1031200086E0F801A6E9B1E001900D928A95E1F7F9
:103130000DCFC8010E94BC0981118ECF80919B01E7
:10314000816080939B01C8010E94D210FFCEEE20C7
:1031500009F48FCFC8010E94BC09F82E882309F416
:1031600088CF86E0F801A6E9B1E001900D928A953A
:10317000E1F780919601909197010E94B0090E9419
:10318000F616E4CE81E08E25FBCE1F93CF93DF931E
:10319000CDB7DEB767970FB6F894DEBF0FBECDBFD1
:1031A0004B8B5C8B6D8B7E8B8F8B61111092EF0143
:1031B0001A8A198A85E0FE017396DE011D96019038
:1031C0000D928A95E1F786E0FE013D96DE011796A5
:1031D00001900D928A95E1F7CE0107960E944C1757
:1031E000882389F016E08091CD0190919C0189138C
:1031F00049C067960FB6F894DEBF0FBECDBFDF9112
:10320000CF911F91089586E0FE013796DE01119659
:1032100001900D928A95E1F78A859B85892B11F3A0
:103220008F81988589238F3FE9F220919C0130E0BE
:10323000C9010196877099274091CD014817190659
:1032400071F40E94D30B10929C011092CD0186E084
:10325000E6E9F1E0DF011D928A95E9F7C3CF96E038
:10326000929FD001939FB00D1124A356BE4FFE0133
:10327000319601900D929A95E1F780939C010E94FE
:10328000C407B0CF819FC001112483569E4F0E9476
:103290004C17882309F4ADCF8091CD0190E00196C1
:1032A000877099278093CD019ECF1F920F920FB602
:1032B0000F9211242F933F934F935F936F937F93BC
:1032C0008F939F93AF93BF93CF93DF93EF93FF932E
:1032D000D091E900DF708091EC00C82FC17080FDB3
:1032E000C0E81092E9008091F000877F8093F000A1
:1032F00078940E94E80B1092E9008091F0008860B9
:103300008093F000CD2BCF70C093E900FF91EF9137
:10331000DF91CF91BF91AF919F918F917F916F91ED
:103320005F914F913F912F910F900FBE0F901F9083
:1033300018951F920F920FB60F9211242F933F935F
:103340004F935F936F937F938F939F93AF93BF93AD
:10335000EF93FF938091E10082FF09C08091E2002A
:1033600082FF05C08091E1008B7F8093E100809116
:10337000DA0080FF24C08091D80080FF20C08091B7
:10338000DA008E7F8093DA008091D90080FF9DC0A3
:1033900080E189BD82E189BD09B400FEFDCF81E0F5
:1033A0008093570280913202811109C00E94460227
:1033B0000E9411038091E20084608093E20080917A
:1033C000E10080FF17C08091E20080FF13C0809170
:1033D000E2008E7F8093E2008091E2008061809322
:1033E000E2008091D80080628093D80019BC85E00B
:1033F000809357028091E10084FF2BC08091E2000E
:1034000084FF27C080E189BD82E189BD89B5982FFD
:10341000917080FFFBCF8091D8008F7D8093D80082
:103420008091E1008F7E8093E1008091E2008F7EA9
:103430008093E2008091E20081608093E2008091BD
:103440005802882309F447C084E080935702809192
:1034500057028091E10083FF27C08091E20083FF43
:1034600023C08091E100877F8093E10082E0809318
:103470005702109258028091E1008E7F8093E10004
:103480008091E2008E7F8093E2008091E200806173
:103490008093E20042E060E080E00E94DF028091E1
:1034A000F00088608093F000FF91EF91BF91AF91A1
:1034B0009F918F917F916F915F914F913F912F914C
:1034C0000F900FBE0F901F90189519BC10925702C5
:1034D0001092320274CF8091E30087FD93E09093C5
:1034E0005702B5CF78941F921FB61F9211248F9365
:1034F0009F93AF93BF938091290290912A02A0914C
:103500002B02B0912C020196A11DB11D80932902BE
:1035100090932A02A0932B02B0932C02BF91AF91FB
:103520009F918F911F901FBE1F9018951F921FB6DD
:103530001F9211248F939F93AF93BF938091280282
:10354000811113C08091290290912A02A0912B022F
:10355000B0912C024196A11DB11D80932902909338
:103560002A02A0932B02B0932C02BF91AF919F919E
:103570008F911F901FBE1F901895CDB7DEB7AA97E9
:103580000FB6F894DEBF0FBECDBF84B7877F84BF70
:103590000FB6F894A89580916000886180936000D0
:1035A000109260000FBE80E890E00FB6F894809310
:1035B0006100909361000FBE85B7806885BF85B7B5
:1035C000806885BF83ED95E090935D0180935C01F9
:1035D0000E9446020E9411038091E2008460809361
:1035E000E2007894809157028823A1F01091E900BD
:1035F0001F709091EC00892F817090FD80E8182B4E
:103600001092E9008091E80083FD0E94E80B1F7092
:103610001093E90082E084BD93E095BD9AEF97BDD9
:1036200080936E000E94DC09811102C00E94320961
:1036300086EC0E94D50587E90E94D50586E60E94A2
:10364000D50584E90E94D50502E411E0D8018D91E9
:103650008D018F3F11F00E94D505B1E00C341B079E
:10366000A9F788E0EDE0F2E0DF01282F1D922A950E
:10367000E9F7E7EFF1E0DF011D928A95E9F790E0C5
:1036800080E00E940E1F893E9E4F21F40E94DC09BB
:10369000811102C00E94661082E090E00E94061F25
:1036A000809303020E94F50990932E0280932D02CD
:1036B0000E94030AEFEFF6E721E0E150F0402040DE
:1036C000E1F700C000000E94030A80910D0280FF14
:1036D00008C06FEF7FEF90E080E00E94321F0E94F1
:1036E000D40383E090E00E94061F90E00E94CD0B7F
:1036F0008CE090E00E94061F90E0B0E0A0E0809394
:10370000FF0190930002A0930102B093020280E0B7
:1037100091E0909325028093240258E1E52EF12C4C
:1037200060E4A62E75E1C72E72E0D72EE0E1BE2E32
:103730008091570212E1853009F478C10E94030A92
:10374000882359F08FB7F8944091290250912A02AA
:1037500060912B0270912C028FBFADE0B2E0E4E0EB
:10376000F2E010E000E0702F8D919D912191319158
:103770002817390709F46AC12827392760E0882407
:103780008394912CA90148215921452B09F458C152
:1037900069A37AA39C012821392191E0232B09F404
:1037A00090E09BA30E94F4038160782F9DA38CA3DB
:1037B00049A15AA16BA18DA10E94C518000F111F2C
:1037C000F801EC5FFD4F80819181882699269182D6
:1037D000808286E0ECE1F2E0DE01119601900D922C
:1037E0008A95E1F790901E0280901F0210912002AE
:1037F0000091210210921E0210921F0210922002CC
:1038000010922102892D882909F448C080911A025A
:1038100090911B020E94E5039C019091160299234E
:1038200009F4BAC225313105C8F19F3F19F09F5FF5
:1038300090931602992059F00E9459059FEF191490
:103840000CF491E0899F802D112480931E02882022
:1038500059F00E9459059FEF18140CF491E0899FCC
:10386000802D112480931F0230911E023323B1F06A
:1038700020911F02222391F045EB3403C001112453
:10388000992309F4FAC090931E0245EB240390019A
:103890001124332309F4F5C030931F02812F802BAC
:1038A00009F448C080911802909119020E94E50322
:1038B0009C0190911502992309F469C221353105C3
:1038C000C8F19F3F19F09F5F90931502112359F0A3
:1038D0000E9437059FEF11160CF491E0899F802D0F
:1038E000112480932002002359F00E9437059FEF96
:1038F00010160CF491E0899F802D112480932102F1
:10390000309120023323B1F020912102222391F043
:1039100045EB3403C0011124992309F4B6C09093F8
:10392000200245EB240390011124332309F4B1C094
:103930003093210280911E0290911F02892B909159
:103940002002892B90912102892B11F00E9497046B
:1039500086E0FE013196ACE1B2E001900D928A95CD
:10396000E1F70E948B0490910C02891380930C0262
:1039700080915702843009F0DBCE83E08093E90028
:103980008091E80082FFD4CE8091E80090E085FF2E
:1039900006C00E946502882309F47FC091E08091EF
:1039A000E8008B778093E800992309F4C1CEE98180
:1039B000E150E33108F005C1F0E0E359F04E0C941A
:1039C000E51E80915702843009F1109228020FB64B
:1039D000F894A895E09260000FBEA092600083B7B3
:1039E000817F846083BF83B7816083BF789488952B
:1039F00083B78E7F83BF0FB6F894A895809160003F
:103A0000886180936000109260000FBE8091560222
:103A1000882361F00E94030AEDE0F2E08191919128
:103A2000892B09F095C1CE16DF06C1F780915702A8
:103A3000853009F4C6CF0E94D30B0E948B047ECE42
:103A40006F5F880C991C6A3009F09CCE0F5F1F4F86
:103A50000430110509F087CE8FEF8EA38FA318A62F
:103A60000E94F4038160782F9AA789A74EA15FA1D5
:103A700068A58AA50E94C518ACCE81E080931E027D
:103A800004CF81E080931F0209CF81E08093200260
:103A900048CF81E0809321024DCF00E210E0CE01BB
:103AA00001964C018091E80085FD0AC08091E800F4
:103AB0008B778093E8000E946502882399F36ECF8C
:103AC0008091F100D4018D934D010150110951F7FE
:103AD00065CF1A8289E08B833FC08A81823009F4E6
:103AE0004DC18330A9F0813009F06BC02FB7F89435
:103AF0006091290270912A0280912B0290912C02F0
:103B00002FBF0E94EB1E6B837C838D839E8324C01A
:103B100080910D0290910E029827892798279C8307
:103B20008B8380910F029091100298278927982704
:103B30009E838D838091110290911202982789278C
:103B4000982798878F838091130290911402982769
:103B5000892798279A87898780915702843009F0AE
:103B6000E7CD1091E9001F709091EC00892F8170D2
:103B700090FD80E8182B82E08093E9008091E800B6
:103B800080FF0DC050E040E060E270E0CE010196A1
:103B90000E9496028091E8008E778093E8001F7063
:103BA0001093E900C5CD8A81823059F46B817C8104
:103BB0008D819E810E94EB1E86E290E00E94141F80
:103BC000CBCF8FEF8983C8CF4C816B818A810E94D4
:103BD00041099827892798279E838D83BDCF8D80A3
:103BE0009E809824892498248A810B81B4E10B9FBC
:103BF00080011124E0E58E9F000D111D11248C81A0
:103C000090E0880F991F080F191F692DC80187962A
:103C10000E94141F682DC8018896D0CF0E94C50845
:103C20009BCFBA8299CF1A8289EB55CF0A811B812B
:103C3000102701271027CE0101963C018C80DC0162
:103C4000A80DB11D4D01C801895B9C4F86149704D6
:103C500009F482CF093B110550F40E94061FF301BD
:103C600084830F5F1F4FBFEF6B1A7B0AECCFD3012A
:103C700014961C92F6CF0A811B811027012710276A
:103C8000FE0131963F018C80800E912E911CC8015F
:103C9000895B9C4F8016910609F45ECF093B1105A4
:103CA00028F4D30114966C910E94141FBFEF6B1A75
:103CB0007B0A0F5F1F4FEBCF0E94B5084DCF8AE004
:103CC0008A834ACF0A811B81102701271027FE0112
:103CD00031963F018C80CF01880D911D4C01C801A8
:103CE00087968614970409F437CF0032A3E01A07A9
:103CF00050F40E94061FF30184830F5F1F4FBFEF34
:103D00006B1A7B0AECCFD30114961C92F6CF0A8172
:103D10001B81102701271027FE0131963F018C805F
:103D2000800E912E911CC80187968016910609F489
:103D300013CF0032F3E01F0728F4D30114966C91DF
:103D40000E94141FBFEF6B1A7B0A0F5F1F4FEBCF50
:103D5000B9BC19BD09B400FEFDCF8091D8008F7D9C
:103D60008093D8008091E00082608093E000809191
:103D7000E00081FDFCCF0E94D30B58CE86E290E09C
:103D80000E94061F1B821C821D828E83E5CE2B3073
:103D9000310508F098CDCECD2B30310508F047CD58
:103DA0007DCD97FB072E16F4009407D077FD09D040
:103DB0000E94F21E07FC05D03EF4909581959F4F1E
:103DC0000895709561957F4F0895EE0FFF1F059040
:103DD000F491E02D0994692796276927782787278A
:103DE00078270895AA1BBB1B51E107C0AA1FBB1F60
:103DF000A617B70710F0A61BB70B881F991F5A9577
:103E0000A9F780959095BC01CD010895F999FECF51
:103E100092BD81BDF89A992780B50895A8E1B0E0D8
:103E200042E050E00C943A1F262FF999FECF92BD44
:103E300081BDF89A019700B4021639F01FBA20BD6F
:103E40000FB6F894FA9AF99A0FBE08950396272FA1
:103E50000E94151F0E94141F252F0E94151F242F3A
:103E60000C94151F0196272F0E94151F0C94141FE8
:103E7000DC01CB01FC01F999FECF06C0F2BDE1BD2A
:103E8000F89A319600B40D9241505040B8F7089519
:103E9000FB01DC0104C08D910190801921F4415097
:103EA0005040C8F7881B990B0895F894FFCFCE0CAB
:103EB000F60C990EF60C990E290D4A0D990E480E26
:103EC000550E7C137C13B513B51358147214E313F9
:103ED000E3137D14051514151415691D6D1DD31DEF
:103EE000E41DEF1D0E1EE11DE11DE11DE11DE11DA3
:103EF000111E131E161E3B1E5C1E5F1E621E871EB9
:103F0000D1037508540850084C08D00301818283FE
:103F1000E200E900EA00B500B600B700CD00830179
:103F2000CC008A019201940121022302240225027D
:103F3000260227022A02B300B4006F007000C69761
:103F40006694343536323331F7F6F5F44022B684D0
:0C3F5000016201AC00C603DF03FF0300A8
:00000001FF
